:020000040800F2
:10000000602F00200DA100087D0D00085906010891
:100010007F0D0008830D0008870D00080000000018
:100020000000000000000000000000008B0D000830
:100030008D0D000800000000A30501081F04000842
:1000400027A1000827A1000827A1000827A1000870
:1000500027A1000827A1000827A1000827A1000860
:1000600027A1000827A1000827A1000827A1000850
:1000700027A1000827A1000827A1000827A1000840
:1000800027A1000827A1000827A1000827A1000830
:1000900027A1000827A1000827A10008950D000846
:1000A00027A1000827A1000827A1000827A1000810
:1000B00027A1000827A1000827A1000827A1000800
:1000C00027A1000827A1000827A1000827A10008F0
:1000D00027A100088F0D0008910D0008150B0008DE
:1000E00027A1000827A1000827A1000827A10008D0
:1000F00027A1000827A1000827A1000827A10008C0
:1001000027A10008732A000827A1000827A10008DA
:1001100027A1000827A1000827A1000827A100089F
:1001200027A1000827A1000827A100088D2A0008A0
:1001300027A1000827A1000827A1000827A100087F
:1001400027A1000827A1000827A1000827A100086F
:1001500027A1000827A1000827A1000827A100085F
:1001600027A1000827A1000827A1000827A100084F
:1001700027A1000827A1000827A1000827A100083F
:1001800027A1000827A1000800F002F800F0B7F846
:100190000AA090E8000C82448344AAF10107DA45E2
:1001A00001D100F0ACF8AFF2090EBAE80F0013F07D
:1001B000010F18BFFB1A43F001031847841F020008
:1001C000A41F02000A444FF0000C10F8013B13F08A
:1001D000070408BF10F8014B1D1108BF10F8015BA0
:1001E000641E05D010F8016B641E01F8016BF9D193
:1001F00013F0080F1EBF10F8014BAD1C0C1B09D1EA
:100200006D1E58BF01F801CBFAD505E014F8016B5B
:1002100001F8016B6D1EF9D59142D6D370470000ED
:100220000023002400250026103A28BF78C1FBD8FF
:10023000520728BF30C148BF0B6070476E291DF0C0
:10024000938570291DF0D58666291FF0EE806529FB
:100250001FF0EB8067291FF0E88061291FF0E7801D
:1002600003681B0A28BF41F0800169291DF0408501
:1002700064291DF03D8575291DF03A856F291DF013
:10028000638678291DF0A186E9291DF0FD85E42902
:100290001DF0FA85F5291DF0F785EF291DF0608620
:1002A000F8291DF0A0860368DB0928BF41F0800112
:1002B00063291EF0A18373291EF0A683E3291EF093
:1002C000B183F3291EF0B683002070471FB51FF0DD
:1002D000A7F81DF079FC0400002000211FF05EF853
:1002E000401C6060002000211FF084F8E0600020C6
:1002F00000211FF069F820611FBD10B510BD1DF071
:100300003DFC1146FFF7E2FF00F04BF81DF084FCC6
:1003100003B4FFF7F2FF03BC1EF0B0FB10B50446B8
:1003200000F0EEFA1DF098F810BD1CB514200A215B
:100330004FF400630022CDE90010AFF21F0105A0C9
:100340000FF045FC044614B120460FF0D8FB002006
:100350001CBD0000696E69740000000004460D4673
:1003600013A00CF04AFA21461BA00CF046FA2946CD
:100370001EA00CF042FA00BFFEE710B500F0BCF979
:100380000CF05CFA1E491F480CF0C1FB0FF029F974
:100390000FF0C6FFFFF7C9FF0AF0A4F90FF03DF90F
:1003A00010BD10B510F0E6F8FFF7E7FF002010BD14
:1003B0000A0D2057726F6E6720706172616D6574EF
:1003C00065722076616C756520646574656374651B
:1003D00064206F6E0D0A000020202020202020665F
:1003E000696C65202025730D0A0000002020202064
:1003F0002020206C696E65202025640D0A00000015
:1004000000000220602F002010B500214FF0006096
:1004100003F0A9FB4FF4A06003F038FB10BD10B54A
:100420000BF006FE09F0A1FE0BF011FE10BD70B539
:1004300009F08DFE04464FF0E02040694FF0E021C6
:100440008969401A00EB800040004FF0E0214969C3
:10045000B0FBF1F004EB840100EB4105284670BDD0
:1004600070B509F074FE05464FF0E02040694FF08A
:10047000E0218969401A42F2107148434FF0E021AF
:100480004969B0FBF1F140F27120684301EB0014BF
:10049000204670BD1CB50121782005F0F4FF012134
:1004A000084606F03EF80C220021B74805F0AAFAEB
:1004B0000C220121B44805F0A5FA0C220421B2480F
:1004C00005F0A0FA0C220521AF4805F09BFA0C229A
:1004D0000621AD4805F096FA0C220721AA4805F03E
:1004E00091FA0C220821A84805F08CFA0C22092167
:1004F000A54805F087FA0C220A21A34805F082FAE4
:100500000C220B21A04805F07DFA0C2211469E48D2
:1005100005F078FA0C220D219B4805F073FA0C22A5
:100520000E21994805F06EFA0C220F21964805F02D
:1005300069FA0C220021954805F064FA0C22012189
:10054000924805F05FFA0C220321904805F05AFA10
:100550000C2207218D4805F055FA0C2208218B4802
:1005600005F050FA0C220921884805F04BFA0C22BC
:100570000A21864805F046FA0C220B21834805F033
:1005800041FA0C221146814805F03CFA0C220D215B
:100590007E4805F037FA0C220E217C4805F032FA2D
:1005A0000C220F21794805F02DFA0C220021784801
:1005B00005F028FA0C220121754805F023FA0C22D7
:1005C0000221734805F01EFA0C220321704805F041
:1005D00019FA0C2204216E4805F014FA0C220521A8
:1005E0006B4805F00FFA0C221146694805F00AFA2B
:1005F0000C220D21664805F005FA0C220E216448F4
:1006000005F000FA0C220F21614805F0FBF90C22DD
:100610000021604805F0F6F90C2201215D4805F043
:10062000F1F90C2202215B4805F0ECF90C220321C0
:10063000584805F0E7F90C220421564805F0E2F984
:100640000C220521534805F0DDF90C2209215148FF
:1006500005F0D8F90C2211464E4805F0D3F90220D6
:100660008DF8040003208DF8050000208DF80600A9
:100670008DF807004FF6F37000906946424804F089
:10068000ADFE4FF68B7000906946404804F0A6FE20
:100690004FF23F00009069463D4804F09FFE41F252
:1006A0003F20009069463B4804F098FE1CBD1CB5F5
:1006B00002208DF804008DF8050000208DF806005A
:1006C0008DF807000121880305F0C3FF01210846CA
:1006D00005F0D9FE4FF48070009069462E4804F072
:1006E0007DFE002208212C4805F08CF900214FF4F2
:1006F000800005F0C7FC1CBD70B5FFF785FEFFF755
:10070000C9FE264800686422B0FBF2F1B1F1807F97
:1007100000D31DE021F07F40401E4FF0E0225061E9
:1007200050170F22002807DA13071D0E1C4B00F08C
:100730000F04241F1D5503E013071C0E194B1C54F6
:1007400000BF00204FF0E02290610720106100BF41
:100750001CF078FE14A00CF0B6F8FFF7A8FF70BDEF
:1007600000BFBFF34F8F0E480C38006800F4E06004
:100770000F490843001D0A490C390860BFF34F8F29
:1007800000BF00BFFEE70000000C02400010024066
:10079000001402400018024000000240A80000209F
:1007A00018ED00E000E400E07561727433000000B1
:1007B0000000FA051CB50121022005F064FE0220AC
:1007C0008DF8040000208DF8060001208DF8070048
:1007D00002208DF805004FF46040009069464F48B4
:1007E00004F0FCFD05220D214C4805F00BF9052213
:1007F0000E214A4805F006F905220F21474805F069
:1008000001F947A24849494802F0E6FA01208DF86B
:10081000040000208DF8060001208DF8070002205A
:100820008DF8050042484349086000158880012181
:10083000402005F028FE3F48808800903D4A91887E
:10084000106804F0D2FF3B490868694604F0C6FD11
:10085000384B33A238A13A4815F031FF01208DF80A
:10086000040000208DF8060001208DF8070002200A
:100870008DF80500294833490860801488800121DB
:10088000022005F000FE2F48808800902D4A9188B4
:10089000106804F0AAFF2B490868694604F09EFD21
:1008A000284B1FA228A12A4815F009FF01208DF826
:1008B000040000208DF8060001208DF807000220BA
:1008C0008DF805001A48234908608020888001219E
:1008D000402005F0D8FD1F48808800901D4A91886F
:1008E000106804F082FF1B490868694604F076FD31
:1008F000184B0BA218A11A4815F0E1FE00201CBDF0
:1009000010B50DA117A002F0D8FB02F07FF832203D
:100910000FF0ACFA09F0A1FC10BD00000004024089
:100920007370693200000000340400200038004079
:10093000001802400000002073706932300000008F
:10094000AC04002008000020737069323100000000
:10095000FC04002010000020737069323200000097
:100960004C050020666C61736830000070B586B07D
:1009700006460C466EB9002001902323DF4AE0A111
:10098000E4A00BF03AFF00BF9DF804000028FBD064
:1009900000BF6CB9002001902423D84AE5A1DDA056
:1009A0000BF02BFF00BF9DF804000028FBD000BF18
:1009B000356C2068B0F5165F03D14FF416500290E5
:1009C00006E02068B0F5E13F02D14FF4E13002903B
:1009D000207900F00F00082802D10020ADF80C00AB
:1009E0002079C0F3011018B90020ADF80E0007E01F
:1009F0002079C0F30110012802D14003ADF80E00A8
:100A00000020ADF81000ADF814000C20ADF8120075
:100A100002A9286808F0CDFC0121286808F012FE20
:100A2000012240F22551286809F05FF9002006B044
:100A300070BDF8B504460E4617466CB9002000900C
:100A40004623C04AAEA1B3A00BF0D7FE00BF9DF86D
:100A500000000028FBD000BF256C102E0DD0112EF9
:100A600019D195F9040000F01F0201219140B64A06
:100A7000430942F8231000BF0DE095F9040000F08F
:100A80001F02012191404209920002F1E022C2F8C6
:100A9000001100BF00BF00BF0020F8BDF8B504463C
:100AA0000E466CB9002000905C23A84A94A199A03E
:100AB0000BF0A3FE00BF9DF800000028FBD000BF94
:100AC000256C00BF2868008800F080000028F9D05D
:100AD000286886800120F8BDF8B504466CB900206E
:100AE00000906A239A4A86A18AA00BF086FE00BF76
:100AF0009DF800000028FBD000BF256C4FF0FF36AA
:100B00002868008800F0200010B128688088C6B2EC
:100B10003046F8BD10B58F4C0BF08AFA40F22551E3
:100B2000206809F008FA38B18B4815F01AFD40F238
:100B30002551206809F08AFA40F22661206809F000
:100B4000FAF920B140F22661206809F07FFA0BF033
:100B50007EFA10BD10B50121022005F094FC0121A0
:100B6000880405F053FD0121480505F04FFD10BD37
:100B70001CB502208DF8040000208DF8060001202D
:100B80008DF8070000208DF805004FF440600090BC
:100B90006946724804F022FC07220A216F4804F0DB
:100BA00031FF07220B216D4804F02CFF1CBD38B526
:100BB000044620798DF8000000208DF801008DF8A2
:100BC000020001208DF80300684602F07AFF38BD6C
:100BD0001CB5FFF7BFFFFFF7CBFF5E4C4FF4E130D2
:100BE0000090019820F480700190019820F00F008F
:100BF00008300190019820F0C0000190019820F089
:100C000030000190019820F400700190544852493E
:100C10004864544808650846DDE900128164C264EE
:100C20002046FFF7C4FF234640F243124EA14A4834
:100C300015F01BFC00201CBD00B587B0012102206F
:100C400005F021FC0121880405F0E0FC02208DF86C
:100C5000080000208DF80A0001208DF80B0000200C
:100C60008DF809004FF44060019001A93B4804F061
:100C7000B5FB07220A21394804F0C4FE07220B21E4
:100C8000364804F0BFFE4FF4E13003900020ADF889
:100C90001000ADF81200ADF81400ADF818000C20EB
:100CA000ADF8160003A9324808F083FB0121304853
:100CB00008F0C8FC07B000BD10B504462D48006818
:100CC00020B9FFF7B9FF01202A49086011E0207818
:100CD0000A2802D128A0FFF7EFFF00BF24480088B0
:100CE00000F080000028F9D020782149091D0880F3
:100CF000641C20780028EAD110BD000090F401089F
:100D000073657269616C20213D2052545F4E554CD1
:100D10004C000000282573292061737365727420CC
:100D20006661696C65642061742025733A256420CE
:100D30000A00000063666720213D2052545F4E5533
:100D40004C4C0000A0F4010880E100E0AEF4010882
:100D5000B9F4010818000020E0050020000402405A
:100D60007CF401089C05002075617274330000005A
:100D700000480040200000200D000000704700BF28
:100D8000FEE700BFFEE700BFFEE770477047704711
:100D90007047704710B50024202004F024FA012881
:100DA00002D1202004F075FA402004F01CFA01283A
:100DB00002D1402004F06DFA802004F014FA0128DA
:100DC00003D1802004F065FA01244FF4807004F010
:100DD0000AFA012803D1000204F05BFA01244FF45F
:100DE000007004F000FA012803D1400204F051FA27
:100DF00001240CB1FFF7CDFF10BD00001CB5002091
:100E000007F02AFA002007F035FA07F0BBF90021B5
:100E10004FF4006005F01DFC00220821FE4804F09C
:100E2000F1FD00220921FC4804F0ECFD00220A211A
:100E3000F94804F0E7FD00220B21F74804F0E2FD39
:100E400000220C21F44804F0DDFD00220221F348C9
:100E500004F0D8FD4FF47060009000208DF804007D
:100E60008DF807006946EC4804F0B8FA04200090B9
:100E70006946EA4804F0B2FA4FF48050009069469F
:100E8000E54804F0ABFA1CBD1CB501218C2005F02F
:100E9000FAFA0C220821E04804F0B4FD0C220921E2
:100EA000DD4804F0AFFD0C220A21DB4804F0AAFD66
:100EB0000C220B21D84804F0A5FD0C221146D6487F
:100EC00004F0A0FD0C220221D44804F09BFD4FF455
:100ED0007060009001208DF8050002208DF804005C
:100EE00000208DF8060001208DF807006946CA48E9
:100EF00004F074FA042000906946C84804F06EFAC1
:100F00004FF48050009000208DF807006946C248D9
:100F100004F064FA4FF40050009000208DF80400B3
:100F200001208DF807006946BD4804F057FA0121F9
:100F3000C80205F08EFB0121880505F0A4FA1CBD4E
:100F400030B58FB004460D464FF0FA51B54803F066
:100F500082FD0021B34803F0E3F8B24802F092FEAC
:100F60004FF000600090B048019002944020039040
:100F700001200490002005904FF4806006908000CE
:100F8000079080000890002009904FF440300A90AC
:100F900004200B9003200C904FF400000D90801063
:100FA0000E9069469F4802F054FF20219D4803F0AF
:100FB0006EF901219B4803F0B3F80FB030BD30B596
:100FC0008FB004460D464FF0FA51964803F043FDAA
:100FD0000021944803F0A4F8924802F053FE4FF029
:100FE000006000909048019002940020039001203E
:100FF0000490002005904FF48060069080000790D8
:1010000080000890002009904FF440300A9004209E
:101010000B9003200C904FF400000D9080100E9068
:101020006946804802F015FF20217E4803F02FF921
:1010300001217C4803F074F80FB030BD10B54FF0BB
:10104000C051784803F014FC10BD10B5FFF7D6FE70
:1010500010BD2DE9F0410646002773484C3805685D
:1010600002E071484C38056805F045000028F8D0CA
:1010700005F0040030B10327042007F015FB3846C3
:10108000BDE8F08105F0010028B10127012007F03B
:101090000BFB3846F4E707F053F9B04202D01027B3
:1010A0003846EDE740F2FF5007F0FEFA002007F067
:1010B0004CF904465D48204008B93846E0E704F0A2
:1010C000004008B11C20DBE704F0804008B1092093
:1010D000D6E704F0005008B10A20D1E704F08050B0
:1010E00008B10B20CCE704F0006008B10C20C7E782
:1010F00004F0806008B10D20C2E704F0807008B1F0
:101100000E20BDE704F4000008B10F20B8E704F496
:10111000800008B11020B3E704F4001008B11120DA
:10112000AEE704F4801008B11220A9E704F400200F
:1011300008B11320A4E704F4802008B114209FE72D
:1011400004F4003008B115209AE704F4803008B1A7
:10115000162095E704F4004008B1172090E704F446
:10116000804008B118208BE704F4005008B1192022
:1011700086E704F0080008B11A2081E738467FE7C7
:101180002DE9FC4107460D46002600240020009072
:10119000019008202649086010204860402088609F
:1011A0000020C8604FF480600861084607F077F8B7
:1011B0001020FFF74EFF044614B12046BDE8FC8125
:1011C0001C48008800041A49086037204860402005
:1011D00088600020C8604FF480600861084607F00E
:1011E0005EF83720FFF735FF04460CB12046E5E7EF
:1011F0004FF0FF30104908600820486030208860B8
:101200000220C8600020086101204861084607F0FC
:10121000B4F80020064911E000080240000C02402A
:10122000001C024058640240802C014008E0FFFD91
:10123000F8060020280000200C070020086033205A
:101240004860402088600020C8604FF480600861DA
:10125000084607F024F83320FFF7FBFE04460CB1E4
:101260002046ABE709E04FF4001007F0CAF920B1BF
:1012700007F008F94DF82600761CFE48006840F299
:101280002A6108400028EED0082007F0BAF928B1FA
:10129000082007F009FA042420468FE7022007F00F
:1012A000B0F928B1022007F0FFF90224204685E7B3
:1012B000202007F0A6F928B1202007F0F5F9062430
:1012C00020467BE74FF4007007F09BF930B14FF4F4
:1012D000007007F0E9F9072420466FE740F2FF505D
:1012E00007F0E2F900980006009901F47F4140EA16
:1012F0000120009901F47F0140EA1120009940EAA1
:101300001160686001980006019901F47F4140EA8C
:101310000120019901F47F0140EA1120019940EA7E
:1013200011602860204649E77CB50546002400206E
:101330000090019007F009F800F0007010B10E2441
:1013400020467CBDCC49098888B26946FFF718FF62
:1013500004460CB12046F4E7012D36D1019800F483
:10136000802000282ED0C44800880004C3490860AB
:1013700037204860402088600020C860A8020861CB
:10138000084606F08CFF3720FFF763FE04460CB1D9
:101390002046D6E70220B949086006204860402070
:1013A00088600020C8604FF480600861084606F03D
:1013B00076FF0620FFF74DFE04460CB12046C0E73D
:1013C0002046BEE725242046BBE7019800F4803084
:1013D00078B3A94800880004A8490860372048600D
:1013E000402088600020C8604FF480600861084693
:1013F00006F055FF3720FFF72CFE04460CB12046BF
:101400009FE700209D4908600620486040208860D2
:101410000020C8604FF480600861084606F03FFF76
:101420000620FFF716FE04460CB1204689E7204649
:1014300087E7FFE72524204683E770B504460025AB
:101440008F480068032802D12725284670BD8C48A4
:10145000006838B18A480068012803D088480068CD
:1014600002282CD1B4F5805F02D127252846EDE76C
:10147000B4F5006F13D10120FFF756FF0546F5B90B
:101480000020804908750860486088604FF400605B
:10149000C86000200861084606F07FFE0FE00020CB
:1014A000FFF742FF054655B90020764908750860E8
:1014B00048608860C8600861084606F06EFE2846ED
:1014C000C4E770B5044600256C48046007206B49EA
:1014D0004860402088600020C8604FF48060086148
:1014E000084606F0DCFE0720FFF7B3FD0546284658
:1014F00070BD30B5014600200022614B1B7881F899
:101500004E305D4B1B88A1F84C305F4B1B681A0EA8
:1015100093090B70C2F383034B7002F003038B70CB
:10152000594B1B68C3F30742CA70574B1B88C3F360
:1015300007220A71544B1A784A715B681A0E13011C
:10154000CB80514B5B68C3F30742CB8843EA12134D
:10155000CB8002F00F030B724B4B9B88C3F3072227
:10156000D3094B72C2F380138B72C2F34013CB7258
:10157000C2F300130B7300234B73414B1B681BB169
:101580003F4B1B68012B3CD193071B0D0B613E4B5E
:101590001A790B6943EA82030B613B4B9B681A0E75
:1015A0000B6943EA92130B61C2F3C2030B7502F09D
:1015B00007034B75344B9B68C3F3074253098B7584
:1015C000C2F38203CB7593075B0F0B762E4B1B89FF
:1015D000C3F307220B7E43EAD2130B760B695B1C25
:1015E0004B640C7E4B6CA41C0125A5406B434B64E3
:1015F0000C7A0123A3408B64D1E9113463434B641B
:1016000021E01F4B1B68022B1DD11F4B1A7993063B
:101610009B0A0B611C4B9B681A0E0B6943EA022361
:101620000B61194B9B68C3F307420B6913430B61B2
:10163000154B1B89C3F307220B695B1CDB044B644E
:101640004FF400738B64C2F3801301F8193F9306C3
:101650005B0E4B700C4B1A7A4B7843EAD2134B70EB
:1016600002F07F038B70084BDB681A0ED309CB7036
:101670000CE00000342C014028000020F806002077
:1016800024000020E006002060060020C2F3411381
:101690000B71C2F382034B7193071B0F8B71FE4BCF
:1016A000DB68C3F307428B7943EA92138B71C2F371
:1016B0004013CB7100230B7202F001034B72F64B07
:1016C0009B89C3F30722D3098B72C2F38013CB72B9
:1016D000C2F340130B73C2F300134B73C2F38103C5
:1016E0008B7302F00303CB73EB4B1A7B53080B7421
:1016F00001234B74E94B1B681A0ECA741939E74B66
:101700001B68C3F307421402CC85E44B1B88C3F368
:101710000722CB8D1343CB85E04B1A7814060C635C
:101720005B681A0E0B6B43EA02440C63DB4B5B688D
:10173000C3F307420B6B43EA02240C63D74B9B882D
:10174000C3F307220B6B13430B63D44B1A79342377
:101750005A54D24B9B681A0E35235A54CF4B9B6870
:10176000C3F3074214068C63CC4B1B89C3F30722D7
:101770008B6B43EA02448C63C84B1A7A8B6B43EA47
:1017800002248C63C54BDB681A0E8B6B13438B638F
:10179000C24BDB68C3F307423C235B5C43EA121491
:1017A0003C235C5413071C0DCC87BC4B9B89C3F3B3
:1017B0000722CB8F1343CB87B84B1A7B54084023A7
:1017C0005C54012441235C5430BD70B50025B448FD
:1017D000046801E0B248046804F045000028F9D02C
:1017E00004F0040028B10325042006F05DFF28461C
:1017F00070BD04F0010028B10125012006F054FF5E
:101800002846F5E740F2FF5006F04EFF2846EFE786
:101810002DE9F04106460F464FF00008A048056844
:1018200001E09F48056805F045000028F9D005F063
:10183000040038B14FF00308042006F035FF40469D
:10184000BDE8F08105F0010030B14FF00108012042
:1018500006F02AFF4046F3E706F072FDB04203D0DF
:101860004FF010084046EBE740F2FF5006F01CFF37
:10187000002006F06AFD044604F4604018B9200C0C
:1018800038804046DCE704F4005008B11320D7E765
:1018900004F4804008B11020D2E704F4004008B1FD
:1018A0000F20CDE74046CBE738B50024012000905B
:1018B00006F0EFFC10B92524204638BD79480068B1
:1018C000042828D000207849086002204860C02001
:1018D00088600020C8604FF480600861084606F008
:1018E000DEFCFFF772FF04460CB12046E5E700205E
:1018F00006F02BFD69490860042006F026FD6749C3
:101900004860082006F021FD644988600C2006F03C
:101910001CFD6249C8606348006858B161480068AE
:10192000012807D05F480068062803D05D4800689A
:10193000022816D100205C4908600320486040203E
:1019400088600020C8604FF480600861084606F097
:10195000A6FC69460320FFF75BFF04460CB1204656
:10196000ABE75048006804282ED0BDF800004F496E
:101970000860BDF8000000044B4908600920486079
:10198000C02088600020C8604FF48060086108466D
:1019900006F085FCFFF719FF04460CB120468CE7E2
:1019A000002006F0D2FC3C490860042006F0CDFC83
:1019B00039494860082006F0C8FC374988600C2087
:1019C00006F0C3FC3449C8600024204675E770B5B2
:1019D00000253348046801E03148046804F04500FC
:1019E0000028F9D004F0040028B10325042006F0F3
:1019F0005BFE284670BD40F2FF5006F055FE2846BB
:101A0000F8E770B500264FF480352548046802E0F9
:101A10006D1E2348046804F0450008B9002DF7D175
:101A200015B104F0040028B10326042006F03CFEA2
:101A3000304670BD04F0400028B10026402006F07A
:101A400033FE3046F5E73046F3E770B500254FF436
:101A5000803400E0641E24B1802006F0D2FD00280E
:101A6000F8D014B90325284670BD40F2FF5006F0A7
:101A70001BFE2846F8E7F8B500200090002500245A
:101A80000026002776200A49087500200860486073
:101A90008860C86008610DE06006002070060020C4
:101AA000342C014024000020F806002028000020EB
:101AB000E0060020084606F070FB032006F0DAFB83
:101AC000012006F0C9FB0020FE49086048608860DC
:101AD000C8604FF480600861084606F0E0FBFFF73D
:101AE000B4FF00909DF8000010B19DF80000F8BD13
:101AF0004FF4D570F34908600820486040208860A2
:101B00000020C8604FF480600861084606F0C7FBFB
:101B1000FFF777FF00909DF8000020B90120EA4907
:101B20000860870712E00020E64908603720486017
:101B3000402088600020C8604FF48060086108463B
:101B400006F0ADFB3720FFF784FA00900020DD4956
:101B5000086037204860402088600020C8604FF44B
:101B600080600861084606F09AFB3720FFF771FA9B
:101B700000909DF80000002851D13BE00020D149A1
:101B8000086037204860402088600020C8604FF41B
:101B900080600861084606F082FB3720FFF759FA9B
:101BA00000909DF8000010B19DF800009FE7C74825
:101BB0003843C449086029204860402088600020DC
:101BC000C8604FF480600861084606F068FBFFF7C4
:101BD000FEFE00909DF8000010B19DF8000086E721
:101BE000002006F0B2FB0546012080EAD57080F0A7
:101BF0000106641C1EB94FF6FF708442BED34FF637
:101C0000FF70844204D31B2000909DF800006EE713
:101C100005F08040051E02D00220AB4908609DF807
:101C2000000064E708B500200090FFF72DF906F0EA
:101C3000A9FAFFF720FF00909DF8000010B19DF871
:101C4000000008BDFFF730FE00909DF8000010B1C5
:101C50009DF80000F5E700209D4908750860486080
:101C60008860C8600861084606F097FA9948FFF74F
:101C700040FC00909DF8000030B99649B1F84C1036
:101C80000804FFF71EFC00909DF8000020B94FF4F7
:101C90000060FFF7D2FB00909DF80000D1E770B51F
:101CA0000446002514B92625284670BD8A480088B8
:101CB0000004844908600D204860402088600020AE
:101CC000C8604FF480600861084606F0E8FA0D200D
:101CD000FFF7BFF905460DB12846E6E7002006F0FC
:101CE00034FB20602846E0E708B50120009041035E
:101CF0007A4803F064FC08B1002000909DF80000D1
:101D000008BD08B500200090FFF7EEFF012809D1BB
:101D10006846FFF7C4FF08B1FF2008BD0098C0F374
:101D20004320FAE7FF20F8E710B50424FFF7E9FFA6
:101D30000446042C01D1002010BDFF2C01D102204B
:101D4000FAE70120F8E710B50024002006F092FA27
:101D5000204610BD70B5044600260025002006F080
:101D6000F4FA00F0007010B10E26304670BD40202D
:101D70005449086010204860402088600020C860F6
:101D80004FF480600861084606F089FA1020FFF7DA
:101D900060F906460EB13046E8E74F480088000477
:101DA0004849086037204860402088600020C860AB
:101DB0004FF480600861084606F071FA3720FFF79B
:101DC00048F906460EB13046D0E74FF0FF3044499F
:101DD000086040204860602088600220C8600020C1
:101DE000086101204861084606F0C7FA002035491D
:101DF00008600D204860402088600020C8604FF4D3
:101E000080600861084606F04AFA0D20FFF721F9C4
:101E100006460EB13046A9E70EE04FF4004006F04A
:101E2000F0FB48B1002504E006F02CFB44F8250047
:101E30006D1C082DF8D320342A48006840F22A612E
:101E400008400028E9D0082006F0DBFB28B1082074
:101E500006F02AFC0426304688E7022006F0D1FB73
:101E600028B1022006F020FC022630467EE7202022
:101E700006F0C7FB28B1202006F016FC06263046E7
:101E800074E74FF4007006F0BCFB30B14FF4007003
:101E900006F00AFC0726304668E74FF0FF3504E0FD
:101EA00006F0F0FA2060241D6D1E4FF4001006F0BD
:101EB000A8FB08B1002DF3D140F2FF5006F0F4FB6F
:101EC000304653E7F8060020240000200000108070
:101ED000E00600209006002028000020001C0240A0
:101EE0000C070020342C014070B504460026002564
:101EF000FE48FFF72FFF06460EB1304670BDFB4887
:101F0000007885092570F9480078C0F340156570A0
:101F1000F648857828026080F448C57860882843B0
:101F20006080F248057928066060F048457960686D
:101F300040EA05406060ED488579606840EA052028
:101F40006060EA48C579606828436060E748057AC0
:101F50002572457A6572807A0509A572E348C57ACB
:101F60002802A081E148057BA0892843A081DF48A1
:101F7000407B8508A573DD48407B00F00305E573D1
:101F80003046BBE72DE9F04107460D4614460026D2
:101F90000020D7490870D7490860D7490860D74959
:101FA0000860D7480068022801D104026D0AD548AC
:101FB00004601020D3494860402088600020C86039
:101FC0004FF480600861084606F069F91020FFF7B9
:101FD00040F8064616B13046BDE8F0814FF0FF30BC
:101FE000C949086008464460902088600220C860A3
:101FF0000020086101204861084606F0BEF9C1488A
:1020000005601120BF494860402088600020C860FA
:102010004FF480600861084606F041F91120FFF78F
:1020200018F806460EB13046D6E7012140F22A30B4
:1020300006F0C4FA012006F0B3FA21463846FEF74E
:10204000BEFF3046C8E72DE9F04180460D461446F4
:102050001E4600270020A6490870A64908600120F6
:10206000A54908600020A5490860A5480068022825
:1020700001D104026D0AA34804601020A149486000
:10208000402088600020C8604FF4806008610846E6
:1020900006F005F91020FEF7DCFF074617B13846B9
:1020A000BDE8F0814FF0FF309749086006FB04F06F
:1020B0004860902088600220C860002008610120EC
:1020C0004861084606F059F98E48056012208D498E
:1020D0004860402088600020C8604FF4806008613C
:1020E000084606F0DCF81220FEF7B3FF07460FB1F2
:1020F0003846D5E7012140F22A3006F05FFA012088
:1021000006F04EFA06FB04F14046FEF758FF38464B
:10211000C6E710B5002400207A4908600C2048600A
:10212000402088600020C8604FF480600861084645
:1021300006F0B5F80C20FEF78CFF0446204610BDD3
:1021400070B500256C1E00E0641E7048006838B948
:102150006848006820B96648007808B9002CF3D1B7
:1021600000206A490860441E00E0641E634808308D
:10217000006800F4005008B1002CF6D15E480068F9
:10218000012802D1FFF7C5FF05460CB905B90425A2
:1021900040F2FF5006F088FA5548007810B15448D4
:1021A000007870BD2846FCE72DE9F04107460D4652
:1021B0001446002600204E4908704E4908604E49DA
:1021C00008604E4908604E480068022801D10402A8
:1021D0006D0A4C48046010204A49486040208860DD
:1021E0000020C8604FF480600861084606F057F888
:1021F0001020FEF72EFF064616B13046BDE8F081EE
:102200004048056018203F49486040208860002011
:10221000C8604FF480600861084606F040F8182056
:10222000FEF717FF06460EB13046E7E74FF0FF30E6
:102230003549086008464460902088600020C860E6
:10224000086101204861084606F097F8012140F234
:102250002A3006F0B3F921463846FEF771FE012018
:1022600006F09EF93046C9E72DE9F04180460F4659
:1022700015461E46002400201D4908701D490860AF
:1022800001201D49086000201C4908601C480068A6
:10229000022801D105027F0A1A4805601020194959
:1022A0004860402088600020C8604FF4806008616A
:1022B000084605F0F4FF1020FEF7CBFE044614B1EB
:1022C0002046BDE8F0811248008800040D490860EE
:1022D00037204860402088600020C8604FF480604C
:1022E0000861084605F0DBFF372013E08006002078
:1022F00030000020340000202C0000202C2C014055
:1023000024000020F80600200C07002038000020E0
:1023100028000020FEF79DFE04460CB12046D0E7C1
:10232000FA4806601720F94948604020886000207C
:10233000C8604FF480600861084605F0B0FF1720C0
:10234000FEF787FE04460CB12046BAE7EF48076067
:102350001920EE494860402088600020C8604FF492
:1023600080600861084605F09AFF1920FEF771FEAB
:1023700004460CB12046A4E74FF0FF30E449086062
:1023800006FB05F04860902088600020C860086166
:1023900001204861084605F0F0FF012140F22A3093
:1023A00006F00CF9012006F0FBF806FB05F14046AB
:1023B000FEF7C6FD204684E770B500256C1E00E0E0
:1023C000641ED448006838B9D348006820B9D3489F
:1023D000007808B9002CF3D10020CE490860441ED3
:1023E00000E0641ECE48006800F4805008B1002C64
:1023F000F7D1CC480068012802D1FFF78AFE0546D4
:102400000CB905B9042540F2FF5006F04DF9C34858
:10241000007810B1C148007870BD2846FCE7C0487C
:10242000006800F4405008B1012070470020FCE72C
:102430007CB504460025002001900090BA48008831
:102440000004B24908600D204860402088600020E8
:10245000C8604FF480600861084605F020FFB0486E
:102460000068009002E0AE4800680090009800F01C
:1024700045000028F7D0009800F0040028B103259B
:10248000042006F011F928467CBD009800F00100F8
:1024900028B10125012006F007F92846F4E705F0E8
:1024A0004FFF009000980D2802D010252846EBE73A
:1024B00040F2FF5006F0F8F8002005F046FF0190CA
:1024C0000198C0F34320207098490198084008B94A
:1024D0002846D9E7019800F0004008B11C20D3E756
:1024E000019800F0804008B10920CDE7019800F084
:1024F000005008B10A20C7E7019800F0805008B1E9
:102500000B20C1E7019800F0006008B10C20BBE788
:10251000019800F0806008B10D20B5E7019800F047
:10252000807008B10E20AFE7019800F4000008B1F8
:102530000F20A9E7019800F4800008B11020A3E75C
:10254000019800F4001008B111209DE7019800F4F3
:10255000801008B1122097E7019800F4002008B11C
:10256000132091E7019800F4802008B114208BE734
:10257000019800F4003008B1152085E7019800F4B7
:10258000803008B116207FE7019800F4004008B1C0
:10259000172079E7019800F4804008B1182073E70C
:1025A000019800F4005008B119206DE7019800F07F
:1025B000080008B11A2067E7284665E72DE9FC41C5
:1025C00006460F4600240025002001900090584840
:1025D0004068202101EA105018B925242046BDE8A2
:1025E000FC814F4830380068C0B2801C5149B1FBB3
:1025F000F0F00190002005F0A8FE00F0007010B18E
:102600000E242046EBE74C480068022801D1760AE8
:102610007F0A4948006838B147480068012803D05C
:102620004548006802282BD13848066020203749E9
:102630004860402088600020C8604FF480600861D6
:10264000084605F02CFE2020FEF703FD04460CB1E1
:102650002046C4E72D48076021202C4948604020CF
:1026600088600020C8604FF480600861084605F06B
:1026700016FE2120FEF7EDFC04460CB12046AEE725
:102680000020224908602620486040208860002001
:10269000C8604FF480600861084605F000FE2620FF
:1026A000FEF7D7FC04460CB1204698E7002500E071
:1026B0006D1C01988542FBD36846FFF7B9FE0446BE
:1026C0004FF0FF3504E06846FFF7B2FE04466D1E8A
:1026D00045B13CB99DF800000728F4D09DF80000F2
:1026E0000628F0D020467AE710B54FF4807005F048
:1026F000EBFF50B10020094908704FF4807006F0DC
:1027000036F801200449086050E017E0F806002080
:102710000C0700203800002034000020300000208A
:10272000342C01402C0000202800002008E0FFFD90
:1027300060060020C0D4010024000020022005F023
:10274000C3FF30B1022006F012F80220D149087010
:102750002CE0082005F0B8FF30B1082006F007F89B
:102760000420CC49087021E0202005F0ADFF30B1F5
:10277000202005F0FCFF0620C649087016E0102056
:1027800005F0A2FF30B1102005F0F1FF0520C1498E
:1027900008700BE04FF4007005F096FF30B14FF475
:1027A000007005F0E4FF0720BA49087000214CF2E0
:1027B0003A3005F003FFB748007810BD10B5B648B1
:1027C000006800F0C05040B10120B44908604FF0EB
:1027D000C251B148583002F03EF910BD0146002008
:1027E00002E04910421CD0B20129FAD1704710B55D
:1027F000044600230122AAA1AB4808F019F818B139
:10280000AAA009F0FAFF02E0B0A009F0F6FF00204C
:1028100010BD0246002070470146002070472DE998
:10282000F05F0D4616461F46AD480068022802D1EB
:102830004FF0010801E04FF400784FF0FF319A4863
:1028400008F09CF806F0030018B34FEA452AB34697
:102850004FF000091AE04FF400725146A148FFF70B
:1028600091FB0446FFF76CFC044600BFFFF75CFADF
:102870000028FBD14FF400729A4958461AF07FFEA7
:102880000AF5007A0BF5007B09F10109B945E2D39D
:1028900018E0012F06D169027A023046FFF772FB79
:1028A000044607E069023B464FF400723046FFF7EA
:1028B000CAFB0446FFF744FC044600BFFFF734FAA6
:1028C0000028FBD1784808F0E1F814B93846BDE893
:1028D000F09F3246214684A009F08FFF0020F6E7E2
:1028E0002DE9F05F0D4616461F467D480068022818
:1028F00002D14FF0010801E04FF400784FF0FF31B2
:10290000694808F03BF806F0030018B34FEA452A7F
:10291000B3464FF000091AE04FF40072594671486F
:102920001AF02DFE4FF4007251466E48FFF73CFC42
:1029300004460AF5007A0BF5007BFFF73DFD0446DF
:1029400000BFFFF7F1F90028FBD109F10109B945F2
:10295000E2D318E0012F06D169027A023046FFF770
:1029600023FC044607E069023B464FF40072304600
:10297000FFF77AFC0446FFF71FFD044600BFFFF790
:10298000D3F90028FBD1484808F080F814B938463C
:10299000BDE8F09F324621465BA009F02EFF0020E3
:1029A000F6E7F8B505460E46144675B900200090C6
:1029B00040F604435D4A5EA161A009F01EFF00BF1E
:1029C0009DF800000028FBD000BF102E1CD121462E
:1029D00011B94FF0FF30F8BD4FF400704860604807
:1029E000806C88603E480068022805D15C48006918
:1029F000401C8002086006E05948406C584A926CBE
:102A0000B0FBF2F0086000BF0020E4E708B5FFF774
:102A100009F9002828D131208DF8000000208DF818
:102A200001008DF8020001208DF80300684601F0D6
:102A300048F800204B494860886001204A490876E0
:102A40004A4888624A48C8624A4808634A48486314
:102A50004A4888634A48C863414808640F2249A12C
:102A6000414807F0CBFB08BD47A009F0C6FE00BFF8
:102A7000F9E710B509F0DCFAFFF736FE022802D1BB
:102A800046A009F0BAFE09F0E2FA10BD10B5FFF752
:102A900095FE10BD30000020006402403800002088
:102AA00073646C6F636B000078070020696E697453
:102AB000207364206C6F636B2073656D6170686F49
:102AC0007265206661696C65640A000053442043A6
:102AD00061726420696E6974204F4B0A0000000027
:102AE000240000209C0900207265616420666169F1
:102AF0006C65643A2025642C2062756666657220D8
:102B00003078253038780A007772697465206661FC
:102B1000696C65643A2025642C206275666665726E
:102B2000203078253038780A00000000C4F401080D
:102B300064657620213D2052545F4E554C4C000078
:102B40002825732920617373657274206661696C2E
:102B500065642061742025733A2564200A00000012
:102B6000900600206807002024070020EF270008B7
:102B700013280008192800081F280008E128000869
:102B8000A329000873643000736463617264206970
:102B90006E6974206661696C65640A00534420455F
:102BA00072726F720A00000070B586B006460C465D
:102BB000756C01A805F0D4FF6078082803DC0020BC
:102BC000ADF808000AE06078102804DC4FF40060DB
:102BD000ADF8080002E0082006B070BD924A6168B6
:102BE000924A914200D91146914B1B689808B1EB6B
:102BF000500F07D38F4BB3EB500F03D30023ADF827
:102C000010302CE0B1EB900F03D30823ADF8103057
:102C100025E0B1EBD00F03D31023ADF810301EE048
:102C2000B1EB101F03D31823ADF8103017E0B1EB50
:102C3000501F03D32023ADF8103010E0B1EB901FEC
:102C400003D32823ADF8103009E0B1EBD01F03D334
:102C50003023ADF8103002E03823ADF81030207882
:102C600000F0020018B10220ADF80A0002E00020D6
:102C7000ADF80A00207800F0010018B10120ADF88D
:102C80000C0002E00020ADF80C00207800F00400F9
:102C900018B10020ADF8120002E08020ADF812005B
:102CA0000020ADF804004FF48270ADF806004FF438
:102CB0000070ADF80E00686F05F072FD01A9686F35
:102CC00005F0A2FD0121686F05F06EFF0021686F1D
:102CD00006F038F900207FE72DE9FC5F05460C4639
:102CE000686C019005F148090198406F00902E6CC6
:102CF000D4F808A0207C00F0010018B1B188306839
:102D000002F0A2FD99F8010008282BDC2768D4F80E
:102D1000048021E04FF0FF0B0FB117F801BB00BF9B
:102D20000221009806F004FA0028F9D059460098CC
:102D300006F0EEF800BF0121009806F0F9F900282E
:102D4000F9D0009806F0CBF800F0FF0BB8F1000FB7
:102D500001D008F801BB00BFBAF10000AAF1010AD6
:102D6000D8D12EE099F8010010282ADC2768D4F881
:102D7000048020E04FF0FF0B0FB137F802BB00BF1B
:102D80000221009806F0D4F90028F9D0594600989D
:102D900006F0BEF800BF0121009806F0C9F900282E
:102DA000F9D0009806F09BF88346B8F1000F01D0E7
:102DB00028F802BB00BFBAF10000AAF1010AD9D17C
:102DC00000BF207CC0F3400018B1B188306802F029
:102DD0000CFDA068BDE8FC9F70B505460C46164684
:102DE0001548854205D160670121801403F031FC4C
:102DF00013E01248854205D160670121001403F0F9
:102E000005FC0AE00E48854205D160670121C01328
:102E100003F0FCFB01E0062070BD0A4A3146204663
:102E200013F034FCF8E7000080A8120160343C0283
:102E3000A800002080C3C9010030014000380040D4
:102E4000003C00403C00002010B504464FF0FF312C
:102E500004F1540007F076FF10BD10B5044604F1EC
:102E6000540008F01AF810BD3EB5FD48046D052069
:102E70000290012001AB024602A90090204613F007
:102E800006FD9DF804003EBD10B500BFFFF7ECFF46
:102E900000F001000028F9D110BD7CB504460E46B3
:102EA000154604208DF80400ED490122086D01A9A2
:102EB00000F0BEFA03208DF80400200C8DF8050008
:102EC000200A8DF80600E0B28DF80700E44900956D
:102ED00033460422086D01A913F0D9FC28467CBDB5
:102EE0002DE9FC4104460D461646E0B268B10020CB
:102EF00000907823DB4ADCA1E0A009F07EFC00BF53
:102F00009DF800000028FBD000BF06208DF80400CB
:102F1000D3490122086D01A900F08AFA20208DF81A
:102F20000400200C8DF80500200A8DF80600E0B2A0
:102F30008DF80700CA490422086D01A900F078FA4B
:102F4000FFF7A2FF002725E006208DF80400C44902
:102F50000122086D01A900F06BFA02208DF804002F
:102F6000200C8DF80500200A8DF80600E0B28DF8DF
:102F700007004FF48070BA4900902B460422086D78
:102F800001A913F0FAFB05F5807504F58074FFF7CD
:102F90007BFF7F1CB7EB162FD6D304208DF80400DF
:102FA000AF490122086D01A900F042FA3046BDE8A0
:102FB000FC8101460020704738B504460D46204686
:102FC000FFF742FF06208DF80000A5490122086D99
:102FD000694600F02DFA01208DF8000000208DF8E0
:102FE00001008DF802009E490322086D694600F039
:102FF0001FFAFFF749FF2046FFF72FFF002038BDDB
:10300000014600207047F8B505460E4614466DB9D6
:1030100000200090C023A14AA1A198A009F0EDFBD7
:1030200000BF9DF800000028FBD000BF102E0ED17D
:10303000214611B94FF0FF30F8BD8948806C4860D7
:103040008748406C08608648C06C886000BF0020DC
:10305000F2E72DE9F04107460D4616461C46384674
:10306000FFF7F2FE7E49896C01FB04F27C49896C12
:1030700001FB05F03146FFF710FF3846FFF7EDFE84
:103080002046BDE8F0812DE9F04107460D46164681
:103090001C463846FFF7D8FE7149896C01FB04F2E3
:1030A0006F49896C01FB05F03146FFF719FF38467F
:1030B000FFF7D3FE2046BDE8F081FEB506460F4679
:1030C000002239466648543007F033FD28B178A015
:1030D00009F093FB6FF00500FEBD384607F068F875
:1030E000054635B9394679A009F087FB6FF0050030
:1030F000F2E75B48056508208DF8050004208DF88F
:103100000400794802905649086D01A913F0FCFAB1
:103110005348FFF799FE0420029051490122086D9F
:1031200002A900F085F99F20029003204C490090ED
:1031300001AB0122086D02A913F0A9FB4848FFF773
:103140008CFE9DF80400EF280ED068A009F055FB16
:103150009DF806309DF805209DF804106AA009F03E
:103160004CFB6FF00500B7E74FF480513C48816499
:10317000C1649DF805409DF8060040EA042444F22D
:103180001800844207D16AA009F037FB4FF4805041
:10319000334948644CE044F21700844207D16AA0E6
:1031A00009F02BFB4FF400602D49486440E044F2E5
:1031B0001700844207D16DA009F01FFB4FF4006097
:1031C0002749486434E044F21600844207D16DA0D8
:1031D00009F013FB4FF480602149486428E046F26F
:1031E0001600844207D16DA009F007FB4FF4806000
:1031F0001B4948641CE044F21500844206D16DA0CE
:1032000009F0FBFA60111649486411E046F2150016
:10321000844207D173A009F0F0FA4FF4007010490E
:10322000486405E075A009F0E8FA6FF0050053E77F
:1032300001200B490876784888627848C862784847
:10324000086378484863784888637848C8630020F2
:1032500008640B223146024806F0D0FF00203BE70D
:103260009C0B0020D6F40108287061676526307831
:10327000464629203D3D20300000000028257329C6
:1032800020617373657274206661696C6564206186
:10329000742025733A2564200A000000E8F4010830
:1032A00064657620213D2052545F4E554C4C000001
:1032B000696E6974207364206C6F636B206D757424
:1032C0006578206661696C65640A00007370692026
:1032D000646576696365202573206E6F7420666F60
:1032E000756E64210D0A000080F0FA024D616E7562
:1032F00066616374757265727320494420657272E9
:103300006F72210D0A0000004A4544454320526572
:1033100061642D49442044617461203A2025303293
:1033200058202530325820253032580D0A00000030
:1033300057323551313238425620646574656374B2
:10334000696F6E0D0A00000057323551363442560F
:10335000206F7220573235513634435620646574DD
:10336000656374696F6E0D0A0000000057323551B5
:103370003634445720646574656374696F6E0D0A52
:1033800000000000573235513332425620646574D4
:10339000656374696F6E0D0A000000005732355185
:1033A0003332445720646574656374696F6E0D0A27
:1033B000000000005732355131364256206F7220DE
:1033C000573235513136434C206F722057323551C8
:1033D0003136435620646574656374696F6E0D0AF7
:1033E000000000005732355131364457206465746F
:1033F000656374696F6E0D0A000000004D656D6FA6
:103400007279204361706163697479206572726FAB
:1034100072210D0A00000000B32F0008B92F000828
:1034200001300008533000088730000807300008DA
:1034300070B505460E4614462346002231462846FE
:1034400013F0AFFA70BD000002460020704710B5BF
:103450000446002010BD2DE9F0418EB00746884695
:1034600015466FB9002000901E23B74AB7A1BBA034
:1034700009F0C3F900BF9DF800000028FBD000BF91
:103480002C2101A81AF014F9B8F1100F03D0B8F1EB
:10349000110F4ED121E02E460DA9002003F064FD4E
:1034A0000CA9002003F055FE9DF83300643006900F
:1034B0009DF83100401E05909DF8320004909DF863
:1034C000340003909DF8350002909DF8360001907D
:1034D00001A81AF06CF930602BE02E4630461AF045
:1034E00041F90446207D6438C0B28DF83300207C59
:1034F000401CC0B28DF83100207B8DF83200207E58
:10350000401CC0B28DF83000207A8DF8340020794C
:103510008DF8350020788DF83600012002F03FFB51
:103520000DA9002003F04AFC0CA9002003F052FD75
:1035300000BF00BF00200EB0BDE8F08170B50546A9
:10354000002400BF0BE0C4EB041202EB420205EBC7
:1035500042018A4A52F8240004F00CFC641C142C2A
:10356000F1D370BD00B587B04FF400100690012173
:10357000C00103F04BF8012002F011FB012002F022
:10358000B8FC02E00698401E0690412002F033FC91
:1035900010B906980028F5D1069818B94FF0FF30F9
:1035A00007B000BD4FF4807002F0C0FEFF207449E8
:1035B00008607F2073490860012002F039FF03F0A2
:1035C00067FA43F2F221002004F0D4FB6EA009F068
:1035D00014F97148016871A009F00FF97448016885
:1035E00074A009F00AF908208DF8140000208DF865
:1035F00015008DF8160003208DF8110018208DF8A5
:10360000120011208DF8130005208DF810005D4880
:10361000006802905A48006803900020019001A8B9
:1036200003F0F2FA05A9012003F0C8FB04A9012068
:1036300003F0D0FC0121880402F025FF002062493C
:1036400008600AE0604800685F4909685F4A88507E
:103650005D480068001D5C4908605B480068B0F583
:10366000805FEFD300205849086011E05648006899
:103670005649405854490968884204D05448006863
:10368000401C5349086050480068001D4E490860BE
:103690004D480068B0F5805FE8D34D48006828B118
:1036A0004B4801684BA009F0A8F802E051A009F0CE
:1036B000A4F8012002F0B9FA00BF082002F031FBA3
:1036C0000028FAD043F2F220FFF738FF002067E726
:1036D00010B505204C490876002004F087FB43F222
:1036E000F22188420ED049A009F087F84DA009F0D8
:1036F00084F8FFF737FF70B156A009F07EF84FF05D
:10370000FF3010BD0121080702F080FF012002F008
:1037100046FA03F0BDF900203B4988625348C8626D
:103720000020086352484863002088635148C863FA
:1037300000200864032250A1334806F05FFD12F018
:10374000A4FC0020DDE70000FDF40108646576209C
:10375000213D2052545F4E554C4C000028257329C2
:1037600020617373657274206661696C65642061A1
:10377000742025733A2564200A00000058000020B8
:103780004800002044000020525443205265636FDB
:103790006E666967200A0000703802405243432079
:1037A00042444352203D20307825780A0000000032
:1037B00040280040525443205441464352203D206B
:1037C000307825780A0000005400002000400240B4
:1037D00050000020424B50205352414D204E756DF9
:1037E000626572206F66206572726F7273203D2071
:1037F00025640A00424B50205352414D2077726994
:103800007465204F4B200A00180C0020727463204E
:103810006973206E6F7420636F6E66696775726579
:10382000640A0000706C6561736520636F6E666981
:10383000677572652077697468207365745F646169
:10384000746520616E64207365745F74696D650AC8
:103850000000000072746320636F6E6669677572A2
:1038600065206661696C2E2E2E0D0A004934000811
:103870004F34000857340008727463000CB5002000
:10388000019000907648006840F4803074490860E8
:1038900000BF7348006800F4003000900198401C9D
:1038A0000190009818B90198B0F5A06FF1D16C485B
:1038B000006800F4003010B10120009001E0002009
:1038C00000900098012846D165484030006840F0DB
:1038D00080506349403108606248006840F480408D
:1038E000604908605E48083000685D49083108603A
:1038F0000846006840F4004008600846006840F44C
:10390000A05008605848091F0860081F006840F070
:103910008070091F086000BF5148006800F0007007
:103920000028F9D040F20560504908604C48083042
:10393000006820F003004A49083108600846006822
:1039400040F00200086000BF45480830006800F001
:103950000C000828F8D10CBD10B54548006840F4AB
:103960007000434908603E48006840F001003C494F
:10397000086000203A4908310860394800683D492C
:103980000840374908603C48091D0860081F006866
:1039900020F48020091F0860002031490C310860A4
:1039A000FFF76CFF4FF0006031498039086010BDAF
:1039B00070B500200022022300240221284D083582
:1039C0002D6805F00C0020B1042806D0082834D159
:1039D00007E02A4D2A4E356033E02A4D284E3560E7
:1039E0002FE01F4D2D1D2D68C5F380541C4D2D1D3E
:1039F0002D6805F03F0154B1224DB5FBF1F5184E8D
:103A0000361D3668C6F3881605FB06F209E01B4D25
:103A1000B5FBF1F5124E361D3668C6F3881605FB68
:103A200006F20F4D2D1D2D68C5F301456D1C6B0071
:103A3000B2FBF3F5124E356003E0104D104E3560C9
:103A400000BF00BF064D08352D68C5F303150E4EA7
:103A5000705D0B4D2D68C540094E356070BD00008E
:103A6000003802400070004019544007003C0240FA
:103A700088ED00E0FFFFF6FE103000240024F40083
:103A8000A800002040787D01AC00002010B504465D
:103A9000B4F5E06F0BD0B4F5C06F08D0B4F5A06FEB
:103AA00005D0B4F5806F02D0B4F5407F00D103E0BB
:103AB00073215FA0FCF752FC6C4820436C490860FE
:103AC00010BD2DE9F0410446002500270F26E078BF
:103AD00010B1E078012800D103E0872154A0FCF761
:103AE0003DFC6078102800DA03E0882150A0FCF744
:103AF00035FCA078102800DA03E089214CA0FCF7FF
:103B00002DFCE07818B35A48006800F4E060C0F576
:103B1000E060C0F30725C5F10400C7B22E4160780C
:103B2000B840C5B2A078304005432807050E51487B
:103B300021784554207800F01F0101208840217829
:103B40004911890001F1E021C1F8000109E0207864
:103B500000F01F010120884047492278521141F8A6
:103B60002200BDE8F08170B504460D46B4F1005F57
:103B700002D0B4F1006F00D103E0B1212CA0FCF71A
:103B8000EDFB3E48854200D203E0B22128A0FCF7BD
:103B9000E5FB3B4905EA010020433549091F086060
:103BA00070BD70B504460D46102C03D0042C01D016
:103BB000022C00D103E0C4211DA0FCF7CFFB0DB106
:103BC000012D00D103E0C52119A0FCF7C7FB3DB1D1
:103BD0002748001D006820432549091D086006E0AC
:103BE0002348001D0068A0432149091D086070BDDD
:103BF00010B50446042C01D0601D00B903E0DC219F
:103C00000BA0FCF7ABFB042C08D14FF0E0200069BF
:103C100040F004004FF0E021086107E04FF0E020A1
:103C2000006920F004004FF0E021086110BD0000A1
:103C300053544D3332463478785F4C696272617206
:103C40006965735C53544D3332463478785F5374EE
:103C5000645065726970685F4472697665725C73FE
:103C600072635C6D6973632E630000000000FA05E7
:103C70000CED00E000E400E080E100E0FFFF0F0059
:103C800080FFFF1F10B50446FE4884423AD0FD482D
:103C90001830844236D0FB483030844232D0F94864
:103CA000483084422ED0F748603084422AD0F5480C
:103CB0007830844226D0F3489030844222D0F148B4
:103CC000A83084421ED0F04884421BD0EE48183001
:103CD000844217D0EC483030844213D0EA48483050
:103CE00084420FD0E848603084420BD0E6487830F8
:103CF000844207D0E4489030844203D0E248A830A0
:103D0000844200D103E0BF21E048FCF727FB206894
:103D100020F001002060002020606060A060E06072
:103D2000206121206061D748844204D13D20D549DB
:103D3000103988608CE0D3481830844205D14FF4A4
:103D40007460D0491039886082E0CE4830308442B7
:103D500005D14FF47410CB491039886078E0C94818
:103D60004830844205D14FF07460C64910398860EC
:103D70006EE0C4486030844204D1C548C14910395E
:103D8000C86065E0BF487830844204D1C148BD496D
:103D90001039C8605CE0BB489030844204D1BE4812
:103DA000B8491039C86053E0B648A830844205D1FC
:103DB0004FF03D50B3491039C86049E0B2488442E1
:103DC00004D13D20B0490839086041E0AE481830C0
:103DD000844205D14FF47460AB490839086037E07C
:103DE000A9483030844205D14FF47410A6490839EF
:103DF00008602DE0A4484830844205D14FF074603B
:103E0000A1490839086023E09F486030844204D10A
:103E10009F489D49091F08601AE09B4878308442FA
:103E200004D19C489849091F086011E096489030D9
:103E3000844204D198489449091F086008E09248D8
:103E4000A830844204D14FF03D508F49091F0860CB
:103E500010BD70B505460C4600268A4885423AD00A
:103E600088481830854236D086483030854232D076
:103E70008448483085422ED08248603085422AD01E
:103E800080487830854226D07E489030854222D0C6
:103E90007C48A83085421ED07B4885421BD07A489A
:103EA0001830854217D078483030854213D0764894
:103EB000483085420FD07448603085420BD072483C
:103EC0007830854207D070489030854203D06E48E4
:103ED000A830854200D104E04FF49E716B48FCF796
:103EE0003DFA2068D8B12068B0F1007F17D0206873
:103EF000B0F1806F13D02068B0F1C06F0FD0206890
:103F0000B0F1006F0BD02068B0F1206F07D02068AF
:103F1000B0F1406F03D02068B0F1606F00D104E0D1
:103F200040F23D115948FCF719FAE06828B1E06801
:103F3000402802D0E068802800D104E04FF49F714F
:103F40005248FCF70BFA206920B12069B0F5803F98
:103F500000D204E040F23F114C48FCF7FFF96069E1
:103F6000B0F5007F01D0606900B904E04FF4A071A2
:103F70004648FCF7F3F9A069B0F5806F01D0A0695D
:103F800000B904E040F241114048FCF7E7F9E0696C
:103F900038B1E069B0F5006F03D0E069B0F5805F3B
:103FA00000D104E04FF4A1713848FCF7D7F9206A3A
:103FB00038B1206AB0F5005F03D0206AB0F5804FB9
:103FC00000D104E040F243113048FCF7C7F9606AC1
:103FD00018B1606AB0F5807F00D104E04FF4A2719F
:103FE0002A48FCF7BBF9A06A58B1A06AB0F5803F37
:103FF00007D0A06AB0F5003F03D0A06AB0F5403FFB
:1040000000D104E040F245112048FCF7A7F9E06A2E
:1040100010B1E06A042800D104E04FF4A3711B48FA
:10402000FCF79CF9206B40B1206B012805D0206B78
:10403000022802D0206B032800D104E040F247118F
:104040001248FCF78BF9606B58B1606BB0F5000F4C
:1040500007D0606BB0F1807F03D0606BB0F1C07FA0
:1040600000D104E04FF4A4710848FCF777F9A06B85
:10407000C0B1A06BB0F5001F14D0A06BB0F5800FDD
:1040800010D00BE010600240106402404C14020893
:104090003D000020400F002000003D20A06BB0F547
:1040A000C00F00D104E040F24911FE48FCF756F978
:1040B0002E68FD480640E1682068084361690843AE
:1040C000A1690843E1690843216A0843616A08431A
:1040D000A16A0843616B0843A16B084306432E6045
:1040E0006E6926F00706D4E90B01084306436E61AA
:1040F000206968606068A860A068E86070BD002101
:10410000016041608160C160016141618161C161A3
:10411000016241628162C1620163416381637047F0
:1041200070B504460D46E14884423AD0DF48183065
:10413000844236D0DD483030844232D0DB484830CB
:1041400084422ED0D948603084422AD0D748783073
:10415000844226D0D5489030844222D0D348A8301B
:1041600084421ED0D24884421BD0D14818308442A9
:1041700017D0CF483030844213D0CD4848308442E5
:104180000FD0CB48603084420BD0C948783084428D
:1041900007D0C7489030844203D0C548A830844235
:1041A00000D104E040F2D911BE48FCF7D7F80DB1B8
:1041B000012D00D104E04FF4ED71BA48FCF7CEF8C0
:1041C00025B1206840F00100206003E0206820F065
:1041D0000100206070BD70B504460D46B3488442AE
:1041E0003AD0B2481830844236D0B0483030844299
:1041F00032D0AE48483084422ED0AC486030844241
:104200002AD0AA487830844226D0A84890308442E8
:1042100022D0A648A83084421ED0A54884421BD094
:10422000A3481830844217D0A1483030844213D0BC
:104230009F48483084420FD09D48603084420BD064
:104240009B487830844207D099489030844203D00C
:104250009748A830844200D104E040F2FD11914813
:10426000FCF77CF815B1B5F5004F00D104E04FF430
:10427000FF718C48FCF772F825B1206840F40040CB
:10428000206003E0206820F40040206070BD70B51D
:1042900004460D46854884423AD08448183084420A
:1042A00036D082483030844232D080484830844210
:1042B0002ED07E48603084422AD07C4878308442B8
:1042C00026D07A489030844222D07848A830844260
:1042D0001ED0774884421BD075481830844217D0CE
:1042E00073483030844213D07148483084420FD034
:1042F0006F48603084420BD06D487830844207D0DC
:104300006B489030844203D06948A830844200D181
:1043100004E040F221216348FCF720F80DB1202D84
:1043200000D104E040F222215E48FCF717F825B1E5
:10433000206840F02000206003E0206820F020008A
:10434000206070BD70B504460D46584884423AD08E
:1043500056481830844236D054483030844232D0E7
:104360005248483084422ED05048603084422AD08F
:104370004E487830844226D04C489030844222D037
:104380004A48A83084421ED0494884421BD048483D
:104390001830844217D046483030844213D0444805
:1043A000483084420FD04248603084420BD04048AD
:1043B0007830844207D03E489030844203D03C4855
:1043C000A830844200D104E040F275213548FBF763
:1043D000C5FF656070BD10B50446344884423AD0CC
:1043E00032481830844236D030483030844232D09F
:1043F0002E48483084422ED02C48603084422AD047
:104400002A487830844226D028489030844222D0EE
:104410002648A83084421ED0254884421BD0244818
:104420001830844217D022483030844213D02048BC
:10443000483084420FD01E48603084420BD01C4864
:104440007830844207D01A489030844203D018480C
:10445000A830844200D104E04FF421711148FBF7E9
:104460007DFF606880B210BD70B504460E461546EB
:104470000E48844242D00D48183084423ED00B484A
:10448000303084423AD009484830844236D0074818
:104490006030844232D00548783084422ED00348C0
:1044A000903007E04C1402083F801CF0106002407E
:1044B00010640240844221D0FE4884421ED0FE484F
:1044C00084421BD0FC481830844217D0FA48303060
:1044D000844213D0F848483084420FD0F648603008
:1044E00084420BD0F4487830844207D0F2489030B0
:1044F000844203D0F048A830844200D104E040F266
:10450000D221EE48FBF72AFF15B1B5F5002F00D1F7
:1045100004E040F2D321E948FBF720FF25B12068F1
:1045200040F40020206003E0206820F40020206098
:10453000266170BD70B504460D46DE48A838844239
:1045400039D0DC489038844235D0DA487838844213
:1045500031D0D848603884422DD0D648483884427B
:1045600029D0D4483038844225D0D24818388442E3
:1045700021D0D04884421ED0CF4884421BD0CE48A0
:104580001830844217D0CC483030844213D0CA4807
:10459000483084420FD0C848603084420BD0C648AF
:1045A0007830844207D0C4489030844203D0C24857
:1045B000A830844200D104E04FF43C71BF48FBF7BF
:1045C000CDFE0DB1012D00D104E040F2F121BB4838
:1045D000FBF7C4FE25B1206840F48020206003E092
:1045E000206820F48020206070BD70B504460E461F
:1045F0001546B048A838844239D0AE489038844235
:1046000035D0AC487838844231D0AA4860388442EA
:104610002DD0A8484838844229D0A6483038844252
:1046200025D0A4481838844221D0A24884421ED004
:10463000A14884421BD0A0481830844217D09E481D
:104640003030844213D09C48483084420FD09A487E
:10465000603084420BD098487830844207D0964826
:104660009030844203D09448A830844200D104E0C2
:1046700040F21A319148FBF771FE15B1B5F5002FE4
:1046800000D104E040F21B318C48FBF767FE0DB10E
:10469000266100E0E66070BD70B5044600258548DF
:1046A000A838844239D083489038844235D0814834
:1046B0007838844231D07F48603884422DD07D489C
:1046C0004838844229D07B483038844225D0794804
:1046D0001838844221D0774884421ED076488442DC
:1046E0001BD075481830844217D07348303084424C
:1046F00013D07148483084420FD06F4860308442F4
:104700000BD06D487830844207D06B48903084429B
:1047100003D06948A830844200D104E040F235312A
:104720006648FBF71BFE206800F4002008B1012555
:1047300000E00025284670BD70B5044600255D48A0
:10474000A838844239D05B489038844235D05948E3
:104750007838844231D05748603884422DD055484B
:104760004838844229D053483038844225D05148B3
:104770001838844221D04F4884421ED04E4884428B
:104780001BD04D481830844217D04B4830308442FB
:1047900013D04948483084420FD0474860308442A3
:1047A0000BD045487830844207D04348903084424B
:1047B00003D04148A830844200D104E040F2A23145
:1047C0003E48FBF7CBFD206800F0010008B1012551
:1047D00000E00025284670BD70B504460025354828
:1047E000A838844239D033489038844235D0314893
:1047F0007838844231D02F48603884422DD02D48FB
:104800004838844229D02B483038844225D0294862
:104810001838844221D0274884421ED0264884423A
:104820001BD025481830844217D0234830308442AA
:1048300013D02148483084420FD01F486030844252
:104840000BD01D487830844207D01B4890308442FA
:1048500003D01948A830844200D104E04FF47171AC
:104860001648FBF77BFD606900F03805284670BDEF
:104870002DE9F04105460C464FF0000800270D4891
:10488000A838854240D00B48903885423CD0094832
:104890007838854238D007486038854234D005489A
:1048A0004838854230D00348303885422CD0014802
:1048B000183805E0B8600240106402404C14020849
:1048C000854221D0F94885421ED0F94885421BD047
:1048D000F7481830854217D0F5483030854213D05C
:1048E000F348483085420FD0F148603085420BD004
:1048F000EF487830854207D0ED489030854203D0AC
:10490000EB48A830854200D104E040F2E131E948AB
:10491000FBF724FDE84884427CD0E7481038844205
:1049200078D0E5481838844274D0E448844271D085
:10493000C01E84426ED0E24884426BD0E14884427B
:1049400068D0E148844265D0DB48E030844261D0E1
:10495000D948203084425DD0B4F1815F5AD0DB4821
:10496000844257D0DA48844254D0DA48844251D045
:10497000D94884424ED0B4F1C05F4BD0B4F1A05FAF
:1049800048D0B4F1905F45D0B4F1885F42D0B4F123
:10499000825F3FD0D14884423CD0D0481038844216
:1049A00038D0CE481838844234D0001F844231D0E9
:1049B000C01E84422ED0CA4884422BD0C9488442AB
:1049C00028D0C948844225D0C448E030844221D050
:1049D000C248203084421DD0C44884421AD0C44802
:1049E000844217D0C348844214D0C348844211D0B3
:1049F000C24884420ED0B4F1205F0BD0B4F1105FF6
:104A000008D0B4F1085F05D0B4F1045F02D0B4F16E
:104A1000015F00D104E040F2E231A648FBF79EFCC2
:104A2000A348854202D2A14EB83E01E0A04E103EFE
:104A300004F0005008B1776800E03768B0480740DC
:104A400007EA040010B14FF0010801E04FF0000840
:104A50004046BDE8F08170B504460D469348A8383D
:104A6000844239D091489038844235D08F48783884
:104A7000844231D08D48603884422DD08B484838EC
:104A8000844229D089483038844225D08748183854
:104A9000844221D0854884421ED0854884421BD060
:104AA00083481830844217D081483030844213D074
:104AB0007F48483084420FD07D48603084420BD01C
:104AC0007B487830844207D079489030844203D0C4
:104AD0007748A830844200D104E040F22241754872
:104AE000FBF73CFC05F04050B0F1405F07D005F00B
:104AF000405020B18348284008B905B104E040F295
:104B000023416C48FBF72AFC6948844202D2674E75
:104B1000B83E01E0664E103E05F0005018B17848EE
:104B20002840F06002E076482840B06070BD70B563
:104B300004460D4616465D48A838844239D05B4885
:104B40009038844235D059487838844231D057481B
:104B5000603884422DD055484838844229D0534883
:104B60003038844225D051481838844221D04F48EB
:104B700084421ED04E4884421BD04D481830844297
:104B800017D04B483030844213D0494848308442D3
:104B90000FD04748603084420BD04548783084427B
:104BA00007D043489030844203D04148A830844223
:104BB00000D104E040F24F413E48FBF7CFFB25F027
:104BC0009E0008B905B104E04FF48A613948FBF74B
:104BD000C5FB0EB1012E00D104E040F25141354831
:104BE000FBF7BCFB05F0800048B126B1606940F0DE
:104BF0008000606103E0606920F080006061802DCA
:104C00000BD02EB1206805F01E010843206004E09F
:104C1000206805F01E018843206070BD2DE9F04733
:104C200005460C464FF000080027B9461F48A83833
:104C3000854239D01D489038854235D01B48783898
:104C4000854231D01948603885422DD01748483800
:104C5000854229D015483038854225D01348183868
:104C6000854221D0114885421ED0114885421BD073
:104C70000F481830854217D00D483030854213D088
:104C80000B48483085420FD00948603085420BD030
:104C900007487830854207D005489030854203D0D8
:104CA0000348A83085422FD133E00000B8600240AD
:104CB000106402404C140208200000100400801010
:104CC0000008001000040010000200100000101086
:104CD0000000081000000410000001102000002057
:104CE0000008002000040020000200200000202016
:104CF0000000102000000820000004200000012017
:104D00007D0F7D0F82F082C040F287418D48FBF716
:104D100025FB8D48844278D08C48844275D08C48DD
:104D2000844272D08B4884426FD08B4884426CD0CE
:104D30008A48844269D08A48844266D0894884423D
:104D400063D08448FC3084425FD083483F30844243
:104D50005BD08548844258D08448844255D08448EA
:104D6000844252D0834884424FD0834884424CD0FE
:104D70008248844249D08248844246D08148844255
:104D800043D08148844240D0804884423DD080480E
:104D900084423AD07F48844237D07F48844234D01E
:104DA0007E48844231D07E4884422ED07D48844261
:104DB0002BD07D48844228D07C48844225D0774837
:104DC000FC30844221D076483F3084421DD0784860
:104DD00084421AD07748844217D07748844214D04E
:104DE0007648844211D0764884420ED07548844279
:104DF0000BD07548844208D07448844205D074486A
:104E0000844202D07348844200D104E04FF491619F
:104E10004C48FBF7A3FA7048854201D26F4E01E07F
:104E20006D4E103E6E48204030B11E2000EAD4275F
:104E3000286800EA070902E0686900F0800904F0C8
:104E4000005008B1776800E037686648074007EA15
:104E5000040028B1B9F1000F02D04FF0010801E0C1
:104E60004FF000084046BDE8F08770B504460D4697
:104E70005A48103084423AD058482830844236D0BC
:104E800056484030844232D05448583084422ED064
:104E90005248703084422AD050488830844226D00C
:104EA0004E48A030844222D04C48B83084421ED0B4
:104EB000494884421BD048481830844217D046489D
:104EC0003030844213D04448483084420FD04248A6
:104ED000603084420BD040487830844207D03E484E
:104EE0009030844203D03C48A830844200D104E092
:104EF00040F2D7411348FBF731FA05F04050B0F1CA
:104F0000405F07D005F0405020B11DB13648284021
:104F100000B904E04FF49B610A48FBF71FFA2E48E2
:104F2000844201D22D4E01E02B4E103E05F0005080
:104F300018B12C482840F06002E02A482840B060B0
:104F400070BD00004C1402082080001010400010BA
:104F500008200010041000100100009000880010CC
:104F600000440010002200100080201000401010AB
:104F700000200810001004100000019000800018AC
:104F800000400014002000120010001100004090AA
:104F90002080002010400020082000200410002065
:104FA000010000A000880020004400200022002012
:104FB0000080202000401020002008200010042045
:104FC000000001A0008000280040002400200022F2
:104FD00000100021000040A0106402400060024068
:104FE0003C0F3C0F7D0F7D0F820082400020B149B5
:104FF0000860091D0860091D0860091D0860AE48A9
:10500000AC4914310860704770B50446002520791A
:1050100010B12079042800D103E07C21A748FBF7D8
:105020009DF96079082805D060790C2802D0607954
:10503000102800D103E07D21A048FBF78FF92068FC
:105040006FF3160010B9206800B103E07E219B4881
:10505000FBF784F9A07910B1A079012800D103E011
:105060007F219648FBF77AF9924DA07990B32846B4
:1050700000682168884329460860081D0068216887
:105080008843291D08602079054428682168084361
:1050900028608848083000682168884385490831BD
:1050A0000860081D00682168884382490C31086047
:1050B000607910280FD1081F0068216808437D49D6
:1050C00008310860081D00682168084379490C31DF
:1050D00008600EE007E0774D607905442868216894
:1050E0000843286005E02079054428682168884342
:1050F000286070BD0021016001710C214171002107
:105100008171704710B50446E00DC00508B904B1BF
:1051100003E0C1216948FBF721F9664810300068B7
:10512000204364491031086010BD70B50446002565
:10513000012C3AD0022C38D0042C36D0082C34D094
:10514000102C32D0202C30D0402C2ED0802C2CD0C3
:10515000B4F5807F29D0B4F5007F26D0B4F5806FF8
:1051600023D0B4F5006F20D0B4F5805F1DD0B4F526
:10517000005F1AD0B4F5804F17D0B4F5004F14D0AB
:10518000B4F5803F11D0B4F5003F0ED0B4F5802FB8
:105190000BD0B4F5002F08D0B4F5801F05D0B4F5BE
:1051A000001F02D0B4F5800F00D103E0E021434896
:1051B000FBF7D4F83F4814300068204008B10125BF
:1051C00000E00025284670BD10B50446E00DC0057E
:1051D00008B904B103E0F6213848FBF7BFF83548B9
:1051E0001430046010BD70B5044600250026012C63
:1051F0003AD0022C38D0042C36D0082C34D0102CC5
:1052000032D0202C30D0402C2ED0802C2CD0B4F595
:10521000807F29D0B4F5007F26D0B4F5806F23D0ED
:10522000B4F5006F20D0B4F5805F1DD0B4F5005FF9
:105230001AD0B4F5804F17D0B4F5004F14D0B4F5A0
:10524000803F11D0B4F5003F0ED0B4F5802F0BD0C5
:10525000B4F5002F08D0B4F5801F05D0B4F5001FB9
:1052600002D0B4F5800F00D104E04FF483711348ED
:10527000FBF774F80F48006800EA04060D48143084
:105280000068204010B10EB1012500E0002528463D
:1052900070BD10B50446E00DC00508B904B104E0C6
:1052A00040F21D110548FBF759F80248143004601C
:1052B00010BD0000003C0140FFFF7F009014020879
:1052C00010B50446FA48844217D0FA48844214D0F4
:1052D000F948844211D0F94884420ED0F8488442FB
:1052E0000BD0F848844208D0F748844205D0F748EC
:1052F000844202D0F648844200D103E07B21F54885
:10530000FBF72CF8EA48844208D10121084601F055
:10531000C7F90021012001F0C3F95EE0E5488442AD
:1053200008D10121022001F0BBF90021022001F087
:10533000B7F952E0E048844208D10121042001F08D
:10534000AFF90021042001F0ABF946E0DB488442CC
:1053500008D10121082001F0A3F90021082001F063
:105360009FF93AE0D648844208D10121102001F08B
:1053700097F90021102001F093F92EE0D1488442E2
:1053800008D10121202001F08BF90021202001F01B
:1053900087F922E0CC48844208D10121402001F065
:1053A0007FF90021402001F07BF916E0C7488442D4
:1053B00008D10121802001F073F90021802001F043
:1053C0006FF90AE0C248844207D10121801501F03B
:1053D00067F90021A01501F063F910BD2DE9F04136
:1053E00004460D4600260027B046B148844217D037
:1053F000B048844214D0B048844211D0AF488442AF
:105400000ED0AF4884420BD0AE48844208D0AE489C
:10541000844205D0AD48844202D0AD48844200D1D8
:1054200003E0BB21AB48FAF799FF002010B92868C8
:1054300000B103E0BC21A748FAF790FF287940B1FA
:105440002879012805D02879022802D02879032854
:1054500000D103E0BD219F48FAF780FFE87928B129
:10546000E879012802D0E879022800D103E0BE21C2
:105470009848FAF773FF002657E0012000FA06F774
:10548000286800EA0708B8454ED120687200032159
:105490009140884320602879710088402168084342
:1054A00020602879012802D02879022830D1687933
:1054B00040B16879012805D06879022802D068795E
:1054C000032800D103E0D0218248FAF747FFA06803
:1054D0007200032191408843A06068797100884080
:1054E000A1680843A060A87910B1A879012800D16B
:1054F00003E0D7217748FAF731FF61680120B04017
:10550000814361606068A979B14089B208436060F5
:10551000E0687200032191408843E060E8797100FF
:105520008840E1680843E060761C102EA5D3BDE8F2
:10553000F0814FF6FF7101600021017141718171AD
:10554000C171704738B504460D464FF48030009065
:105550005748844217D05748844214D05648844252
:1055600011D0564884420ED0554884420BD055483D
:10557000844208D05448844205D05448844202D022
:105580005348844200D104E04FF482715148FAF745
:10559000E5FE002008B905B104E040F205114D48D0
:1055A000FAF7DCFE0098284300900098E061E5617E
:1055B0000098E061E0690090E069009038BD70B546
:1055C00005460C4600263A48854217D039488542A0
:1055D00014D03948854211D0384885420ED0384819
:1055E00085420BD03748854208D03748854205D0E0
:1055F0003648854202D03648854200D104E04FF457
:1056000098713448FAF7AAFE012C25D0022C23D039
:10561000042C21D0082C1FD0102C1DD0202C1BD0E6
:10562000402C19D0802C17D0B4F5807F14D0B4F55D
:10563000007F11D0B4F5806F0ED0B4F5006F0BD0A1
:10564000B4F5805F08D0B4F5005F05D0B4F5804FA5
:1056500002D0B4F5004F00D104E040F231111D48F2
:10566000FAF77CFE2869204008B1012600E00026F8
:10567000304670BD10B504460D48844217D00D4821
:10568000844214D00C48844211D00C4884420ED07D
:105690000B4884420BD00B48844208D00A4884420D
:1056A00005D00A48844202D00948844214D118E047
:1056B000000002400004024000080240000C0240CA
:1056C000001002400014024000180240001C02407A
:1056D00000200240D41402084FF4A371FE48FAF7E8
:1056E0003DFE206980B210BD70B505460C4600260F
:1056F000FA48854217D0FA48854214D0F9488542C5
:1057000011D0F94885420ED0F84885420BD0F848B0
:10571000854208D0F748854205D0F748854202D037
:10572000F648854200D104E040F25711EA48FAF702
:1057300015FE012C25D0022C23D0042C21D0082CBE
:105740001FD0102C1DD0202C1BD0402C19D0802C09
:1057500017D0B4F5807F14D0B4F5007F11D0B4F524
:10576000806F0ED0B4F5006F0BD0B4F5805F08D019
:10577000B4F5005F05D0B4F5804F02D0B4F5004F0A
:1057800000D104E04FF4AC71D348FAF7E7FD686943
:10579000204008B1012600E00026304670BD10B55B
:1057A0000446CE48844217D0CD48844214D0CD4818
:1057B000844211D0CC4884420ED0CC4884420BD0D5
:1057C000CB48844208D0CB48844205D0CA488442A2
:1057D00002D0CA48844200D104E040F26D11BE48B4
:1057E000FAF7BCFD606980B210BD70B504460D4685
:1057F000BA48844217D0BA48844214D0B948844287
:1058000011D0B94884420ED0B84884420BD0B84871
:10581000844208D0B748844205D0B748844202D0B9
:10582000B648844200D104E040F27F11AA48FAF75A
:1058300095FD002008B905B104E04FF4C071A648F9
:10584000FAF78CFD258370BD70B504460D46A3485C
:10585000844217D0A248844214D0A248844211D076
:10586000A14884420ED0A14884420BD0A048844273
:1058700008D0A048844205D09F48844202D09F4867
:10588000844200D104E04FF4C9719348FAF766FDF1
:10589000002008B905B104E040F293118E48FAF7F0
:1058A0005DFD658370BD70B505460C4616468B4898
:1058B000854217D08A48854214D08A48854211D043
:1058C000894885420ED0894885420BD08848854258
:1058D00008D08848854205D08748854202D087484D
:1058E000854200D104E04FF4D3717B48FAF736FDCE
:1058F000012C25D0022C23D0042C21D0082C1FD021
:10590000102C1DD0202C1BD0402C19D0802C17D04F
:10591000B4F5807F14D0B4F5007F11D0B4F5806F5A
:105920000ED0B4F5006F0BD0B4F5805F08D0B4F59D
:10593000005F05D0B4F5804F02D0B4F5004F00D120
:1059400004E040F2A7116448FAF708FD0EB1012EF9
:1059500000D104E04FF4D4715F48FAF7FFFC0EB1B8
:105960002C8300E06C8370BD70B504460D465B4827
:10597000844217D05A48844214D05A48844211D0E5
:10598000594884420ED0594884420BD0584884422A
:1059900008D05848844205D05748844202D057481E
:1059A000844200D104E040F2BD114B48FAF7D6FC26
:1059B000656170BD70B504460D464848844217D0F5
:1059C0004748844214D04748844211D04648844214
:1059D0000ED0464884420BD04548844208D0454802
:1059E000844205D04448844202D04448844200D1D5
:1059F00004E040F2CB113848FAF7B0FC6069684027
:105A0000606170BD2DE9F04106460D461446002741
:105A1000B8463248864217D03148864214D03148C1
:105A2000864211D0304886420ED0304886420BD094
:105A30002F48864208D02F48864205D02E488642FD
:105A400002D02E48864200D104E040F217212248BD
:105A5000FAF784FCEDB1012D1BD0022D19D0032DD6
:105A600017D0042D15D0052D13D0062D11D0072DDC
:105A70000FD0082D0DD0092D0BD00A2D09D00B2DDC
:105A800007D00C2D05D00D2D03D00E2D01D00F2DDC
:105A900000D104E04FF406710F48FAF75FFC7CB3C5
:105AA000092C47D064B35CB354B34CB3012C41D040
:105AB00040D0022C3ED03DD03CD0032C3AD0042C18
:105AC00038D037D036D0052C34D033D0092C31D053
:105AD000062C2FD0092C14E0D41402080000024038
