:020000040800F2
:1000000010320020DD800008710700082BEA00088C
:1000100073070008770700087B070008000000004E
:100020000000000000000000000000007F07000842
:100030008107000800000000B3E900086B04000815
:10004000F7800008F7800008F7800008F7800008B4
:10005000F7800008F7800008F7800008F7800008A4
:10006000F7800008F7800008F7800008F780000894
:10007000F7800008F7800008F7800008F780000884
:10008000F7800008F7800008F7800008F780000874
:10009000F7800008F7800008F7800008F780000864
:1000A000F7800008F7800008F7800008F780000854
:1000B000F7800008F7800008F7800008F780000844
:1000C000F7800008F7800008F7800008F780000834
:1000D000F7800008FF090008F7800008F780000893
:1000E000F7800008F7800008F7800008F780000814
:1000F000F7800008F7800008F7800008F780000804
:10010000F78000082D320008F7800008F78000080B
:10011000F7800008F7800008F7800008F7800008E3
:10012000F7800008F7800008F7800008F7800008D3
:1001300000F002F800F0B5F80AA090E8000C824444
:100140008344AAF10107DA4501D100F0AAF8AFF221
:10015000090EBAE80F0013F0010F18BFFB1A43F0A5
:100160000103184784010200A40102000A444FF071
:10017000000C10F8013B13F0070408BF10F8014B06
:100180001D1108BF10F8015B641E05D010F8016B4B
:10019000641E01F8016BF9D113F0080F1EBF10F8AF
:1001A000014BAD1C0C1B09D16D1E58BF01F801CBD2
:1001B000FAD505E014F8016B01F8016B6D1EF9D555
:1001C0009142D6D37047000000230024002500266A
:1001D000103A28BF78C1FBD8520728BF30C148BFAA
:1001E0000B6070476E291BF0B58770291CF0F780F3
:1001F00066291DF0078365291DF0048367291DF01A
:10020000018361291DF0008303681B0A28BF41F0A8
:10021000800169291BF0628764291BF05F877529BB
:100220001BF05C876F291CF0858078291CF0C38047
:10023000E9291CF01F80E4291CF01C80F5291CF022
:100240001980EF291CF08280F8291CF0C280036815
:10025000DB0928BF41F0800163291CF0C3857329A5
:100260001CF0C885E3291CF0D385F3291CF0D88540
:10027000002070471FB51BF09DFE040000200021E8
:100280001DF07EFA401C6060002000211DF0A4FAE1
:10029000E060002000211DF089FA20611FBD10B52B
:1002A00010BD1BF061FE1146FFF7E4FF00F0A3F85C
:1002B0001BF0A8FE03B4FFF7F2FF03BC1CF0D4FD53
:1002C000002400F05FFA11E02DA00AF07CFA641C13
:1002D000002000F073FA4FF4FA700DF0ADFD00202D
:1002E00000F081FA4FF4FA700DF0A6FDECE7002063
:1002F00000E0401CFDE710B5044600F002FA1BF0D8
:10030000A1FA10BD7FB514200A214FF4006300222A
:10031000CDE90010AFF221011AA00DF03EFC064617
:1003200016B130460DF0D1FB052014214FF40072B8
:10033000164BCDE90032CDE902100023144A15A175
:1003400015480DF052FB054615B913480DF0BDFBDD
:10035000052014214FF40072104BCDE90032CDE995
:10036000021000230E4A0FA110480DF03EFB044678
:1003700014B90E480DF0A9FB002004B070BD0000B8
:1003800061616100696E697400000000E40300208F
:10039000C10200086C656400E40500206C060020C2
:1003A000EF0200086D707536303530006C080020A3
:1003B00004460D4613A00AF006FA21461BA00AF0D7
:1003C00002FA29461EA00AF0FEF900BFFEE710B5AA
:1003D00000F0C0F80AF018FA1E491F480AF07DFB29
:1003E0000DF0E5F80DF082FFFFF78CFF08F060F9E3
:1003F0000DF0F9F810BD10B50EF0C4FAFFF7E7FFE5
:10040000002010BD0A0D2057726F6E672070617258
:10041000616D657465722076616C756520646574C4
:100420006563746564206F6E0D0A00002020202033
:1004300020202066696C65202025730D0A000000CD
:10044000202020202020206C696E65202025640D4E
:100450000A000000000001201032002010B5002129
:100460004FF0006007F0B2FD10BD10B509F0C6FDF9
:1004700007F063FE09F0D1FD10BD08B501214FF46E
:10048000F07004F000F80121080203F0D1FF1820F9
:100490008DF8030003208DF802004CF20300ADF844
:1004A000000069464D4805F0DFFC4FF68070ADF85E
:1004B000000069464A4805F0D7FC4FF4E060ADF80B
:1004C00000006946454805F0CFFC4FF23F00ADF80B
:1004D00000006946434805F0C7FC3F20ADF8000026
:1004E0006946414805F0C0FC4FF46050ADF800008B
:1004F00069463A4805F0B8FC3020ADF8000069467E
:10050000364805F0B1FC0320ADF8000069463448D8
:1005100005F0AAFC8020ADF8000069462F4805F0E0
:10052000A3FC4FF40070ADF8000069462E4805F0BA
:100530009BFC4FF48060ADF8000069462A4805F046
:1005400093FC4FF48050ADF800006946264805F052
:100550008BFC08BD70B5FFF781FF244800684FF49D
:100560007A72B0FBF2F1B1F1807F00D31DE021F08F
:100570007F40401E4FF0E022506150170F220028AC
:1005800007DA13071D0E1A4B00F00F04241F1D5528
:1005900003E013071C0E174B1C5400BF00204FF044
:1005A000E02290610720106100BFFFF766FF1BF09B
:1005B0003FF911A00AF06DF970BD00BF0C480C386E
:1005C000006800F4E0600E490843001D08490C393A
:1005D0000860BFF34F8F00BF00BFFEE7001401406B
:1005E00000180140001C0140002001405400002080
:1005F00018ED00E000E400E0756172743100000065
:100600000000FA0508B50121052003F03CFFE020B9
:10061000ADF8000003208DF8020018208DF80300CB
:1006200069463E4805F020FC3DA23F493F4802F0A4
:100630001BFF0121402003F026FF03208DF802005C
:1006400010208DF803003A483A490860202088803D
:1006500008468088ADF800000868694605F004FC8B
:10066000344A9188106805F0DCFD324B2CA232A18F
:10067000334814F01CFA0121102003F004FF03207A
:100680008DF8020010208DF803002E482E490860D6
:100690000220888008468088ADF800000868694616
:1006A00005F0E2FB284A9188106805F0BAFD264B58
:1006B0001BA226A1274814F0FAF90121402003F0DB
:1006C000E2FE03208DF8020010208DF80300184888
:1006D000214908600420888008468088ADF8000021
:1006E0000868694605F0C0FB1B4A9188106805F050
:1006F00098FD194B0AA219A11A4814F0D8F9002044
:1007000008BD10B50CA118A003F017F802F09DFC6D
:1007100032200DF091FB07F086FD10BD000801406E
:100720007370693100000000F408002000300140BF
:100730000018014000000020737069313000000093
:100740006C0900200010014008000020737069311E
:1007500031000000BC0900201000002073706931D6
:10076000320000000C0A0020666C617368300000E3
:10077000704700BFFEE700BFFEE700BFFEE770471F
:100780007047000008B50121202003F07CFE1020F6
:100790008DF8030003208DF802004FF40050ADF8EF
:1007A00000006946304805F05FFB4FF48040ADF82B
:1007B000000069462C4805F057FB08BD10B50446FB
:1007C00014B1012C0CD105E04FF40051264805F07E
:1007D00028FD06E04FF48041234805F022FD00E0AB
:1007E00000BF00BF10BD10B5044614B1012C0CD1E0
:1007F00005E04FF400511C4805F03EFD06E04FF4C3
:100800008041194805F038FD00E000BF00BF10BD71
:1008100070B505460C461548007820B9FFF7B2FFC1
:100820000120124908706DB914B1012C08D103E000
:100830000020FFF7D8FF04E00020FFF7BFFF00E033
:1008400000BF00BF012D0DD114B1012C08D103E070
:100850000120FFF7C8FF04E00120FFF7AFFF00E031
:1008600000BF00BF70BD0000001401401800002050
:1008700070B586B006460C466EB900200190322352
:100880009B4A9CA1A0A009F09EFF00BF9DF8040018
:100890000028FBD000BF6CB9002001903323944A9C
:1008A000A1A199A009F08FFF00BF9DF804000028C6
:1008B000FBD000BF356C20680290207900F00F005B
:1008C000082802D10020ADF80C002079C0F30110F7
:1008D00018B90020ADF80E0007E02079C0F3011030
:1008E000012802D14003ADF80E000020ADF8100041
:1008F000ADF814000C20ADF8120002A9286805F02C
:10090000D0FF0121286806F010F9012240F225519C
:10091000286806F037F9002006B070BDF8B5044627
:100920000E4617466CB9002000905223824A71A1EE
:1009300075A009F048FF00BF9DF800000028FBD01B
:1009400000BF256C102E0DD0112E19D195F9040081
:1009500000F01F0201219140784A430942F8231018
:1009600000BF0DE095F9040000F01F020121914045
:100970004209920002F1E022C2F8001100BF00BF5C
:1009800000BF0020F8BDF8B504460E466CB9002043
:10099000009068236A4A57A15BA009F014FF00BFCA
:1009A0009DF800000028FBD000BF256C00BF286820
:1009B000008800F080000028F9D028688680012097
:1009C000F8BDF8B504466CB90020009076235D4A66
:1009D00048A14DA009F0F7FE00BF9DF800000028D7
:1009E000FBD000BF256C4FF0FF362868008800F070
:1009F000200010B128688088C6B23046F8BD10B516
:100A0000514C09F0FBFA40F22551206806F0EDFC4C
:100A100038B14E4813F09DFF40F22551206806F092
:100A200070FD40F22661206806F0DFFC20B140F244
:100A30002661206806F065FD09F0EFFA10BD10B5DB
:100A40000121042003F01FFD0121880303F01BFD99
:100A500010BD08B502208DF8020004208DF80300B7
:100A60000002ADF800006946394805F0FDF918208C
:100A70008DF803004FF40070ADF80000694634486B
:100A800005F0F2F908BD38B5044620798DF800006C
:100A900000208DF801008DF8020001208DF8030080
:100AA000684607F044FA38BD1CB52A4903C9CDE9A8
:100AB0000001FFF7C4FFFFF7CCFF234C4FF4E130F8
:100AC0000090254821494864244808650846DDE926
:100AD00000128164C2642046FFF7D5FF234640F22E
:100AE00043121FA1194813F0B8FE00201CBD0000DE
:100AF0008CD8010873657269616C20213D205254C5
:100B00005F4E554C4C0000002825732920617373FB
:100B1000657274206661696C656420617420257358
:100B20003A2564200A00000063666720213D2052B8
:100B3000545F4E554C4C00009CD8010880E100E009
:100B4000AAD80108B5D801081C000020A00A00207E
:100B500000080140C0D8010878D801085C0A0020CC
:100B6000756172743100000070B52A25F748446B36
:100B700001E0F648446B04F045000028F9D004F089
:100B8000040028B10325042005F07AF8284670BD3A
:100B900004F0010028B10125012005F071F8284674
:100BA000F5E740F2FF5005F06BF82846EFE72DE936
:100BB000F04106460F464FF02A08E448456B01E035
:100BC000E248456B05F045000028F9D005F0040027
:100BD00038B14FF00308042005F052F84046BDE854
:100BE000F08105F0010030B14FF00108012005F05F
:100BF00047F84046F3E704F0A4FEB04203D04FF0BC
:100C000010084046EBE740F2FF5005F039F80020AD
:100C100004F09BFE044604F4604018B9200C3880B0
:100C20004046DCE704F4005008B11320D7E704F491
:100C3000804008B11020D2E704F4004008B10F2032
:100C4000CDE74046CBE738B52A240120009004F0D8
:100C5000F3FD10B92524204638BDBD48006804289E
:100C600029D00020BB49086002204860C02088606D
:100C70000020C8604FF480600861084604F012FE4E
:100C8000FFF772FF04462A2C01D02046E4E700203B
:100C900004F05BFEB0490860042004F056FEAE4943
:100CA0004860082004F051FEAB4988600C2004F035
:100CB0004CFEA949C860A648006858B1A44800681D
:100CC000012807D0A2480068062803D0A048006881
:100CD000022817D100209F49086003204860402067
:100CE00088600020C8604FF480600861084604F006
:100CF000D9FD69460320FFF75AFF04462A2C01D08C
:100D00002046A9E792480068032817D1BDF80000E3
:100D1000000490490860032048604020886000205B
:100D2000C8604FF480600861084604F0BBFDFFF71F
:100D30001BFF04462A2C01D020468DE7844800681A
:100D400004282FD0BDF8000084490860BDF80000D9
:100D500000048049086009204860C02088600020A5
:100D6000C8604FF480600861084604F09BFDFFF7FF
:100D7000FBFE04462A2C01D020466DE7002004F03B
:100D8000E4FD77490860042004F0DFFD7449486001
:100D9000082004F0DAFD724988600C2004F0D5FDCB
:100DA0006F49C8602A24204656E770B52A2567484F
:100DB000446B01E06548446B04F045000028F9D01D
:100DC00004F0040028B10325042004F059FF28464C
:100DD00070BD40F2FF5004F053FF2846F8E72DE9BC
:100DE000F04106462A275948456B01E05748456BB4
:100DF00005F045000028F9D005F0040030B10327C4
:100E0000042004F03DFF3846BDE8F08105F0010004
:100E100028B10127012004F033FF3846F4E704F03D
:100E200090FDB04202D010273846EDE740F2FF5067
:100E300004F026FF002004F088FD044649482040C5
:100E400008B93846E0E704F0004008B11C20DBE7B1
:100E500004F0804008B10920D6E704F0005008B142
:100E60000A20D1E704F0805008B10B20CCE704F051
:100E7000006008B10C20C7E704F0806008B10D20C5
:100E8000C2E704F0807008B10E20BDE704F4000052
:100E900008B10F20B8E704F4800008B11020B3E7D0
:100EA00004F4001008B11120AEE704F4801008B17A
:100EB0001220A9E704F4002008B11320A4E704F4E9
:100EC000802008B114209FE704F4003008B11520F9
:100ED0009AE704F4803008B1162095E704F4004046
:100EE00008B1172090E704F4804008B118208BE780
:100EF00004F4005008B1192086E704F0080008B196
:100F00001A2081E738467FE770B52A2642F210752D
:100F10000E48446B02E06D1E0C48446B04F0450023
:100F200008B9002DF7D115B104F0040028B103264B
:100F3000042004F0A5FE304670BD04F0400098B1D6
:100F40002A26402004F09CFE3046F5E70080014050
:100F500024000020580B0020300B00202800002027
:100F6000200B002008E0FFFD3046E5E770B52A259C
:100F700042F2107400E0641E24B1802004F02DFEC3
:100F80000028F8D014B90325284670BD40F2FF5060
:100F900004F076FE2846F8E72DE9F0472A240026DB
:100FA00000254FF000084FF000094FF0000AB22072
:100FB000FE4908750020086048608860C8600861C4
:100FC000084604F0BDFB032004F021FC012004F0DE
:100FD00011FC0020F649086048608860C8604FF442
:100FE0008060086100BF07E0F14804F05BFCFFF798
:100FF000BDFF044608F10108B8F14A0FF4D32A2CCA
:1010000002D02046BDE8F0874FF4D570E84908606B
:1010100008204860402088600020C8604FF480604D
:101020000861084604F03EFCFFF76EFF04462A2CD8
:1010300005D10120DF4908604FF0804A12E000200E
:10104000DB49086037204860402088600020C86085
:101050004FF480600861084604F024FC3720FFF755
:10106000BEFE04460020D249086037204860402078
:1010700088600020C8604FF480600861084604F072
:1010800011FC3720FFF7ABFE04462A2C5AD143E06F
:10109000002717E00020C64908603720486040203C
:1010A00088600020C8604FF480600861084604F042
:1010B000F9FB3720FFF793FE04462A2C00D103E00A
:1010C000781CC7B2032FE5DB00BF032F01D12046F8
:1010D00098E7B9484AEA0000B54908602920486005
:1010E000402088600020C8604FF480600861084696
:1010F00004F0D8FBFFF759FE04462A2C01D0204605
:1011000080E7002004F021FC0646012080EAD6702A
:1011100080F001096D1C00BFB9F1000F03D14FF63B
:10112000FF708542B4D34FF6FF70854202D31B2473
:10113000204667E706F08040061E35D002209D4914
:10114000086031E003209B4908601FE09B489849F4
:10115000086001204860402088600020C8604FF48B
:1011600080600861084604F09DFBFFF71EFE044600
:101170002A2C01D0204645E7002004F0E6FB064675
:10118000012080EAD67080F001096D1CB9F1000FD2
:1011900003D14FF6FF708542D8D34FF6FF708542DA
:1011A00002D31B2420462DE72A202BE708B5012176
:1011B000302003F068F94FF4F850ADF80000032038
:1011C0008DF8020018208DF8030069467C4804F071
:1011D0004BFE0420ADF8000069467A4804F044FE56
:1011E00008BD10B52A24FFF7E1FF0121880203F0B2
:1011F0001FF90121022003F01BF904F093FAFFF715
:10120000CBFE04462A2C01D0204610BDFFF71BFD63
:1012100004462A2C01D02046F7E7012063490875CF
:101220000020086048608860C8604FF48040086112
:10123000084604F085FA2046E7E710B52A24002086
:1012400004F0E5FA204610BD30B501462A20002200
:10125000584B1B7881F84E305B4B1B88A1F84C3003
:101260005A4B1B681A0E93090B70C2F383034B7021
:1012700002F003038B70554B1B68C3F30742CA701F
:10128000524B1B88C3F307220A71504B1A784A71DC
:101290005B681A0E1301CB804C4B5B68C3F30742AB
:1012A000CB8843EA1213CB8002F00F030B72474B3B
:1012B0009B88C3F30722D3094B72C2F380138B724E
:1012C000C2F34013CB72C2F300130B7300234B73B2
:1012D000384B1B683BB1374B1B68012B03D0354B98
:1012E0001B68032B3CD193071B0D0B61374B1A79FD
:1012F0000B6943EA82030B61344B9B681A0E0B693E
:1013000043EA92130B61C2F3C2030B7502F00703A9
:101310004B752E4B9B68C3F3074253098B75C2F381
:101320008203CB7593075B0F0B76284B1B89C3F3A6
:1013300007220B7E43EAD2130B760B695B1C4B64CE
:101340000C7E4B6CA41C0125A5406B434B640C7AAE
:101350000123A3408B64D1E9113463434B6421E042
:10136000144B1B68022B1DD1184B1A7993069B0A4C
:101370000B61164B9B681A0E0B6943EA02230B6143
:10138000124B9B68C3F307420B6913430B610F4B6E
:101390001B89C3F307220B695B1CDB044B644FF40E
:1013A00000738B64C2F3801312E00000400B002036
:1013B000580B002024000020000010800080FF80D7
:1013C000001001400014014028000020200B0020E4
:1013D00001F8193F93065B0E4B70FE4B1A7A4B785F
:1013E00043EAD2134B7002F07F038B70F94BDB683A
:1013F0001A0ED309CB70C2F341130B71C2F38203EF
:101400004B7193071B0F8B71F24BDB68C3F30742E1
:101410008B7943EA92138B71C2F34013CB71002393
:101420000B7202F001034B72EA4B9B89C3F3072254
:10143000D3098B72C2F38013CB72C2F340130B73C8
:10144000C2F300134B73C2F381038B7302F00303E7
:10145000CB73E04B1A7B53080B7401234B74DE4BA8
:101460001B681A0ECA741939DB4B1B68C3F3074299
:101470001402CC85D84B1B88C3F30722CB8D1343B2
:10148000CB85D54B1A7814060C635B681A0E0B6B70
:1014900043EA02440C63D04B5B68C3F307420B6B17
:1014A00043EA02240C63CC4B9B88C3F307220B6BEB
:1014B00013430B63C84B1A7934235A54C64B9B68A9
:1014C0001A0E35235A54C44B9B68C3F307421406C3
:1014D0008C63C14B1B89C3F307228B6B43EA024425
:1014E0008C63BD4B1A7A8B6B43EA02248C63BA4B34
:1014F000DB681A0E8B6B13438B63B74BDB68C3F34C
:1015000007423C235B5C43EA12143C235C54130700
:101510001C0DCC87B04B9B89C3F30722CB8F1343A1
:10152000CB87AD4B1A7B540840235C5401244123E4
:101530005C5430BDFEB507460D4600262A24002027
:10154000019002900820A5490860102048604020C2
:1015500088600020C8604FF480600861084604F08D
:10156000A1F91020FFF73BFC04462A2C01D02046AD
:10157000FEBD9B48008800049849086037204860F9
:10158000402088600020C8604FF4806008610846F1
:1015900004F088F93720FFF722FC04462A2C01D0FA
:1015A0002046E5E74FF0FF308E490860082048608C
:1015B000302088600220C860002008610120486156
:1015C000084604F0DAF90020009002E00098401C80
:1015D000009000981428F9D3002080490860332037
:1015E0004860402088600020C8604FF48060086137
:1015F000084604F057F93320FFF7F1FB04462A2C84
:1016000001D02046B4E70AE04FF4001004F0E5FAF8
:1016100028B104F033FA01A941F82600761C72487B
:10162000406B40F22A6108400028EDD0082004F009
:10163000D4FA28B1082004F023FB0424204697E7BD
:10164000022004F0CAFA28B1022004F019FB022497
:1016500020468DE7202004F0C0FA28B1202004F0B5
:101660000FFB0624204683E74FF4007004F0B5FA20
:1016700030B14FF4007004F003FB0724204677E7F5
:1016800040F2FF5004F0FCFA01980006019901F4C1
:101690007F4140EA0120019901F47F0140EA1120D5
:1016A000019940EA1160686002980006029901F40D
:1016B0007F4140EA0120029901F47F0140EA1120B4
:1016C000029940EA11602860204651E77CB5054642
:1016D0002A2400200090019004F037F900F00070F7
:1016E00010B10E2420467CBD3D49098888B2694668
:1016F000FFF720FF04462A2C01D02046F3E7012DF6
:1017000038D1019800F48020002830D03448008877
:10171000000432490860372048604020886000207B
:10172000C860A8020861084604F0BCF83720FFF73B
:1017300056FB04462A2C01D02046D4E70220274934
:10174000086006204860402088600020C8604FF490
:1017500080600861084604F0A5F80620FFF73FFB0B
:1017600004462A2C01D02046BDE72046BBE72524AD
:101770002046B8E7019800F48030B8B318480088D4
:101780000004164908603720486040208860002027
:10179000C8604FF480600861084604F083F8372081
:1017A000FFF71DFB04462A2C01D020469BE70020B2
:1017B0000A49086006204860402088600020C86010
:1017C0004FF480600861084604F06CF80620FFF7CB
:1017D00006FB0CE0200B0020300B0020580B0020F3
:1017E000280000206C0B00200080014006E0044629
:1017F0002A2C01D0204676E7204674E7252420468F
:1018000071E770B504462A25FE480068032802D116
:101810002725284670BDFB48006838B1F9480068A4
:10182000012803D0F7480068022830D1B4F5805F62
:1018300002D127252846EDE7B4F5006F15D1012028
:10184000FFF744FF05462A2D21D10120EE490875F6
:1018500000200860486088604FF40060C860002085
:101860000861084603F06CFF11E00020FFF72EFF2F
:1018700005462A2D0BD10120E34908750020086098
:1018800048608860C8600861084603F059FF284630
:10189000C0E701462A2019B1012901D0022902D14D
:1018A000DA4A116000E02620704770B504462A2508
:1018B000D74804600720D64948604020886000204F
:1018C000C8604FF480600861084603F0EBFF072012
:1018D000FFF785FA0546284670BD30B58BB0054642
:1018E0000C46CC4806F0F2F90021CB4806F008F887
:1018F000CA480090019500200290A00803900020A3
:1019000004908020059080000690800007900020C1
:1019100008904FF40050099000200A906946BE4894
:1019200005F01FFF0121BC4805F0EAFF0BB030BDF8
:101930000146002002E04910421CD0B20129FAD130
:1019400070472DE9F05F07460D4614464FF02A0810
:101950004FF000092E464FF0000A25B94FF0260837
:101960004046BDE8F09F2A20AD4908700020AD49EF
:101970000860AD490860401EAC490860002048601E
:101980008860C86008614861084603F0F6FF0020DF
:1019900003F07AFF002003F0D8FF00F0007018B1C8
:1019A0004FF00E084046DCE796480068022801D157
:1019B00004027F0A002C21DDB4F5006F1EDC601EDE
:1019C0002040D8B92046FFF7B3FF82469048046014
:1019D00010208F494860402088600020C8604FF484
:1019E00080600861084603F05DFF1020FFF7F7F9FB
:1019F0008046B8F12A0F05D04046B2E74FF02608DE
:101A00004046AEE74FF0FF30884908600846446022
:101A10004FEA0A1088600220C86000200861012097
:101A20004861084603F0A9FF7F4804600020804910
:101A30000860804805607648076011207449486056
:101A4000402088600020C8604FF48060086108462C
:101A500003F028FF1120FFF7C2F98046B8F12A0FE2
:101A600001D040467DE769480068022858D111E05E
:101A70004FF4004004F0B1F860B14FF0000905E008
:101A800003F0FCFF46F8290009F10109B9F1080F3C
:101A9000F6D3203661488038406B40F22A61084016
:101AA0000028E5D0082004F098F830B1082004F0B0
:101AB000E7F84FF00408404653E7022004F08DF8A1
:101AC00030B1022004F0DCF84FF00208404648E74D
:101AD000202004F082F830B1202004F0D1F84FF03B
:101AE000060840463DE74FF4007004F076F838B140
:101AF0004FF4007004F0C4F84FF00708404630E798
:101B000003E003F0BBFF3060361D4FF4001004F01B
:101B100064F80028F5D140F2FF5004F0B1F83EE03F
:101B20003A480068012813D1012148F22A3003F015
:101B300088FE00BF3B48006818B9394800782A2859
:101B4000F8D0374800782A2829D03548007808E7A7
:101B50002E48006818BB012140F22A3003F071FEC4
:101B6000012003F091FE06F0DAFA8346214628466A
:101B7000FFF7B3FE0CE02A4800782A2805D106F0CA
:101B8000CEFAA0EB0B000A2802D94FF0290804E096
:101B9000294805F0EEFF0028EDD000BF00BF404609
:101BA000DFE62DE9F84F81460E4614461D464FF0FC
:101BB0002A084FF0000A37460020009026B94FF05F
:101BC00026084046BDE8F88F2A20154908700020F5
:101BD0001449086014490860401E14490860002038
:101BE00048608860C86008614861084603F0C5FE27
:101BF000002003F049FE002003F0A7FE00F0007073
:101C000000B31BE024000020400B00202C0000202B
:101C1000580B002000F00010440402408080014076
:101C20004000002044000020300000206C0B002009
:101C3000340000203C000020002000104FF00E086F
:101C40004046BFE7F9480068022802D104024FEA83
:101C50005929002C21DDB4F5006F1EDC601E2040E8
:101C6000D8B92046FFF764FE0090F14804601020C8
:101C7000EF494860402088600020C8604FF48060D1
:101C80000861084603F00EFE1020FFF7A8F8804612
:101C9000B8F12A0F05D0404694E74FF02608404699
:101CA00090E7012D71D905FB04F0B0F1007F03D35B
:101CB0004FF02608404685E705FB04F0DD49086043
:101CC0000120DD490860DD4806604FF0FF30DC4947
:101CD000086005FB04F0486000980001886002205D
:101CE000C8600020086101204861084603F045FEF5
:101CF000CF48C0F800901220CD494860402088604D
:101D00000020C8604FF480600861084603F0CAFDF7
:101D10001220FFF764F88046B8F12A0F01D0404640
:101D200050E7C848006802287BD111E04FF400401A
:101D300003F053FF60B14FF0000A05E003F09EFE90
:101D400047F82A000AF1010ABAF1080FF6D3203742
:101D5000BD48406B40F22A3108400028E6D00820F8
:101D600003F03BFF30B1082003F08AFF4FF0040876
:101D7000404627E7022003F030FF38B1022003F08D
:101D80007FFF4FF0020840461CE79EE0202003F052
:101D900024FF30B1202003F073FF4FF006084046C7
:101DA00010E74FF4007003F018FF38B14FF40070E3
:101DB00003F066FF4FF00708404603E703E003F037
:101DC0005DFE38603F1D4FF4001003F006FF002851
:101DD000F5D14FF4807003F000FF18B3934800680A
:101DE00038B192480068022803D090480068012862
:101DF00018D100208E4908600C204860402088607F
:101E00000020C8604FF480600861084603F04AFD76
:101E10000C20FEF7E4FF8046B8F12A0F02D04046BE
:101E2000D0E604E040F2FF5003F02AFF4FE085487F
:101E30000068012813D1012148F22A3003F001FD86
:101E400000BF8248006818B9814800782A28F8D075
:101E50007F4800782A283AD07D480078B2E6794851
:101E6000006890BB012140F22A3003F0EAFC012017
:101E700003F00AFD06F053F9834605FB04F13046F2
:101E8000FFF72BFD0DE0724800782A2805D106F0F7
:101E900046F9A0EB0B000A2803D94FF02908404669
:101EA00090E66C4805F065FE0028ECD000BF67485E
:101EB000006818B9664800782A28F8D06448007885
:101EC0002A2803D0624800787CE600E000BF404644
:101ED00078E67CB504462A250020019000905E48F3
:101EE00000880004524908600D2048604020886046
:101EF0000020C8604FF480600861084603F0D2FCFF
:101F00005148406B009002E04F48406B00900098B1
:101F100000F045000028F7D0009800F0040028B138
:101F20000325042003F0ACFE28467CBD009800F099
:101F3000010028B10125012003F0A2FE2846F4E7A4
:101F400003F0FFFC009000980D2802D010252846D1
:101F5000EBE740F2FF5003F093FE002003F0F5FCA6
:101F600001900198C0F3432020703C49019808403B
:101F700008B92846D9E7019800F0004008B11C20B4
:101F8000D3E7019800F0804008B10920CDE701981F
:101F900000F0005008B10A20C7E7019800F0805017
:101FA00008B10B20C1E7019800F0006008B10C20D7
:101FB000BBE7019800F0806008B10D20B5E70198FB
:101FC00000F0807008B10E20AFE7019800F4000027
:101FD00008B10F20A9E7019800F4800008B1102093
:101FE000A3E7019800F4001008B111209DE70198C3
:101FF00000F4801008B1122097E7019800F4002047
:1020000008B1132091E7019800F4802008B1142052
:102010008BE7019800F4003008B1152085E701989E
:1020200000F48030E0B116207FE70000240000209B
:10203000580B002030000020340000203C0000201D
:102040006C0B00202C000020008001404400002088
:1020500040000020002000102800002008E0FFFDC4
:10206000019800F4004008B117205EE7019800F4E1
:10207000804008B1182058E7019800F4005008B1DA
:10208000192052E7019800F0080008B11A204CE727
:1020900028464AE730B58BB005460C46FE4805F0A9
:1020A00015FE0021FD4805F02BFCFD480090019530
:1020B00010200290A008039000200490802005903A
:1020C0008000069080000790002008904FF4005098
:1020D000099000200A906946F04805F042FB012172
:1020E000EE4805F00DFC0BB030BD2DE9FF5F8246D8
:1020F0000F4614462A2500200390029083460026AE
:10210000019080460090B94627B92625284604B09C
:10211000BDE8F09F2A20E34908700020E2490860EA
:10212000E2490860401EE24908600020486088607B
:10213000C86008614861084603F01FFC002003F0F6
:10214000A3FB002003F001FC00F0007010B10E258D
:102150002846DCE7D7480068022802D104024FEA8B
:102160005A2A002C20DDB4F5006F1DDC601E2040D3
:10217000D0B92046FFF7DCFB0390CF480460102065
:10218000CD494860402088600020C8604FF48060DE
:102190000861084603F086FB1020FEF720FE054686
:1021A0002A2D04D02846B2E726252846AFE7C348A3
:1021B00000880004C04908600D2048604020886005
:1021C0000020C8604FF480600861084603F06AFB95
:1021D0000D20FEF704FE05462A2D01D0284696E77D
:1021E000002003F0B2FB01904FF0FF3B1EE0ABF18B
:1021F000010BB24800880004AF4908600D20486018
:10220000402088600020C8604FF480600861084664
:1022100003F048FB0D20FEF7E2FD05462A2D01D014
:10222000284674E7002003F090FB0190019800F429
:10223000807010B9BBF1000FD9D1BBF1000F01D1F3
:10224000292064E79C48C0F800A018209A494860FB
:10225000402088600020C8604FF480600861084614
:1022600003F020FB1820FEF7BAFD05462A2D01D009
:1022700028464CE78D480460002091490860914849
:1022800007604FF0FF308A490860084644600398B1
:10229000000188600020C86008610120486108468C
:1022A00003F06BFB8848006802286CD139E04FF4DA
:1022B000804003F092FCA0B37C480068801B20287B
:1022C00020D27A480078801B00F0030020B97748BC
:1022D0000068801B800804E074480068801B800848
:1022E000401C00904FF0000808E0D9F8000003F00F
:1022F000C9FB08F1010809F10409361D0098804561
:102300000FD2F2E74FF0000805E059F8280003F07B
:10231000B9FB08F10108B8F1080FF6D309F120095B
:1023200020365F488038406B40F21A610840002830
:10233000BDD0082003F051FC28B1082003F0A0FC18
:1023400004252846E3E6022003F047FC28B10220DA
:1023500003F096FC02252846D9E6102003F03DFC48
:1023600028B1102003F08CFC05252846CFE64FF459
:10237000007003F032FCE8B34FF4007003F080FC0F
:1023800007252846C3E650480068012813D10121DB
:1023900044F21A3003F055FA00BF4348006818B9F8
:1023A000404800782A28F8D03E4800782A2828D0CB
:1023B0003C480078ABE644480068D8B9012140F2B7
:1023C0001A3003F03EFA21463846FFF763FE01203B
:1023D00003F05AFA00BF3D4805F0CBFB0028FAD0C5
:1023E00000BF3148006818B92E4800782A28F8D074
:1023F0002C4800E005E000782A2802D0294800781F
:1024000085E640F2FF5003F03BFC02A8FFF761FDB8
:10241000054603E002A8FFF75CFD05462A2D07D11B
:102420009DF808000728F5D09DF808000628F1D08F
:1024300028466CE62DE9FE4F8346884614461E4624
:102440002A25002002900190002781460090C24674
:10245000B8F1000F03D126252846BDE8FE8F2A20BB
:102460001049087000201049086010490860401E9B
:102470000F490860002048608860C86008614861B2
:10248000084603F07AFA002003F0FEF9002003F07A
:102490005CFA00F000701BE000F000104404024001
:1024A00080800140400000204400002030000020D7
:1024B0006C0B002024000020580B00202800002076
:1024C00034000020380000202C00002000200010E4
:1024D00010B10E252846C0E7F9480068022802D14D
:1024E00004024FEA5B2B002C20DDB4F5006F1DDCED
:1024F000601E2040D0B92046FFF71AFA0290F1483A
:1025000004601020EF494860402088600020C860C7
:102510004FF480600861084603F0C4F91020FEF70C
:102520005EFC05462A2D04D0284696E72625284637
:1025300093E7E54800880004E24908600D20486000
:10254000402088600020C8604FF480600861084621
:1025500003F0A8F90D20FEF742FC05462A2D01D014
:1025600028467AE7012E7BD906FB04F0B0F1007F04
:1025700002D32625284670E7D148006838B1D048F4
:102580000068012803D0CE48006802282FD1CE4829
:1025900000880004CB4908603720486040208860EC
:1025A0000020C8604FF480600861084603F07AF9A3
:1025B0003720FEF714FC05462A2D01D028464CE7AB
:1025C000C04806601720BF4948604020886000204E
:1025D000C8604FF480600861084603F063F9172073
:1025E000FEF7FDFB05462A2D01D0284635E7B54804
:1025F000C0F800B01920B34948604020886000202E
:10260000C8604FF480600861084603F04BF9192058
:10261000FEF7E5FB05462A2D01D028461DE706FBFF
:1026200004F0AA4908600120A9490860A948C0F837
:1026300000804FF0FF30A849086006FB04F04860B6
:102640000298000188600020C8600861012048618C
:10265000084603F092F9A148006802287ED13AE0CA
:10266000D1E04FF4804003F0B8FAA0B39748006877
:10267000C01B20280FD34FF0000905E05AF82900AD
:1026800003F000FA09F10109B9F1080FF6D30AF1D4
:10269000200A20371FE08D480078C01B00F003009F
:1026A00020B98A480068C01B800804E08748006899
:1026B000C01B8008401C00904FF0000908E0DAF8C9
:1026C000000003F0DFF909F101090AF1040A3F1DD6
:1026D00000988145F3D38248406B40F21A3108409C
:1026E0000028BED0082003F078FA28B1082003F0B3
:1026F000C7FA04252846B0E6022003F06EFA28B196
:10270000022003F0BDFA02252846A6E6102003F0B9
:1027100064FA28B1102003F0B3FA052528469CE698
:102720004FF4007003F059FA30B14FF4007003F029
:10273000A7FA0725284690E64FF4807003F04DFA7B
:10274000002860D05E48006838B15D480068012804
:1027500003D05B480068022855D100E016E0002055
:10276000584908600C204860402088600020C860FC
:102770004FF480600861084603F094F80C20FEF7DF
:102780002EFB05462A2D3ED0284666E653480068B3
:10279000012813D1012144F21A3003F052F800BF8E
:1027A0005048006818B9504800782A28F8D04E4898
:1027B00000782A2827D04C4800784EE64748006821
:1027C00008BB012140F21A3003F03BF8012003F06E
:1027D0005BF806FB04F14046FFF75CFC00BF434892
:1027E00005F0C7F90028FAD000BF3E48006818B9C4
:1027F0003D4800782A28F8D03B4800782A2802D0A3
:102800003948007829E640F2FF5003F039FA01A870
:10281000FFF75FFB054603E001A8FFF75AFB0546FB
:102820002A2D07D19DF804000728F5D09DF8040053
:102830000628F1D0284610E62948406B00F44050A5
:1028400008B1012070470020FCE710B52A240020C1
:102850001C4908600C204860402088600020C86047
:102860004FF480600861084603F01CF80C20FEF766
:10287000B6FA0446204610BD2DE9FC4105460E4639
:102880002A24002700200190009019484068202148
:1028900001EA105018B925242046BDE8FC811048F3
:1028A0004068C0B2801C1349B1FBF0F001900020D9
:1028B00003F04BF800F00070F0B10E242046ECE776
:1028C00024000020580B00202800002030000020A9
:1028D00034000020380000206C0B00202C00002069
:1028E0000080014044000020400000200020001033
:1028F000200B002040190100FE480068022801D189
:102900006D0A760AFB48006838B1FA480068012869
:1029100003D0F848006802282DD1F7480560202030
:10292000F5494860402088600020C8604FF480600E
:102930000861084602F0B6FF2020FEF750FA044670
:102940002A2C01D02046A8E7EB4806602120EA495E
:102950004860402088600020C8604FF480600861B3
:10296000084602F09FFF2120FEF739FA04462A2C80
:1029700001D0204691E70020DF490860262048600A
:10298000402088600020C8604FF4806008610846DD
:1029900002F088FF2620FEF722FA04462A2C01D0F6
:1029A00020467AE7002700E07F1C01988742FBD38E
:1029B0006846FFF78EFA044603E06846FFF789FA97
:1029C00004462A2C07D19DF800000728F5D09DF871
:1029D00000000628F1D020465FE770B504462A259E
:1029E00014B92625284670BDC44800880004C24991
:1029F00008600D204860402088600020C8604FF4C7
:102A000080600861084602F04DFF0D20FEF7E7F9EF
:102A100005462A2D01D02846E5E7002002F095FF63
:102A200020602846DFE770B504462A2600250020EE
:102A300002F08BFF00F0007010B10E26304670BD22
:102A40004020AD4908601020486040208860002088
:102A5000C8604FF480600861084602F023FF102030
:102A6000FEF7BDF906462A2E01D03046E7E7A34817
:102A700000880004A0490860372048604020886032
:102A80000020C8604FF480600861084602F00AFF29
:102A90003720FEF7A4F906462A2E01D03046CEE7AD
:102AA0004FF0FF3096490860402048606020886001
:102AB0000220C8600020086101204861084602F039
:102AC0005CFF00208C4908600D2048604020886031
:102AD0000020C8604FF480600861084602F0E2FE02
:102AE0000D20FEF77CF906462A2E01D03046A6E7D7
:102AF0000EE04FF4004003F070F848B1002504E008
:102B000002F0BCFF44F825006D1C082DF8D32034DA
:102B10007C48406B40F22A6108400028E9D0082038
:102B200003F05BF828B1082003F0AAF80426304629
:102B300085E7022003F051F828B1022003F0A0F845
:102B4000022630467BE7202003F047F828B12020FA
:102B500003F096F80626304671E74FF4007003F054
:102B60003CF830B14FF4007003F08AF80726304685
:102B700065E703E002F082FF2060241D4FF400109F
:102B800003F02BF80028F5D140F2FF5003F078F85D
:102B9000403C002515E014F82500000634F8251007
:102BA00001F47F4140EA012054F8251001F47F012F
:102BB00040EA112054F8251040EA116044F825003D
:102BC0006D1C102DE7D3304639E770B50024002581
:102BD0004D480068012867D1C00303F061F8A8B12F
:102BE00000BF06E002F04AFF4849096841F82400A6
:102BF000641C082CF6D3454800682030434908601F
:102C0000434800682030424908604DE04FF480405E
:102C100003F046F8002847D03E4800683C49096860
:102C2000401A20282BD23B48007839490968401ABD
:102C300000F0030030B93748006835490968401A88
:102C4000800806E03348006831490968401A800866
:102C5000401C054600240FE02F490968086802F06F
:102C600011FF641C2C480068001D2B49086028488F
:102C70000068001D26490860AC42EDD314E0002432
:102C800006E02549096851F8240002F0FBFE641CA7
:102C9000082CF6D32048006820301F4908601C48E3
:102CA000006820301A4908604FF4807002F0F8FF85
:102CB000B0B315480068D0B10EE002F0DFFE134952
:102CC0000968086011480068001D10490860104834
:102CD0000068001D0E4908604FF4001002F07DFFEF
:102CE00028B10B4800680B4909688842E5D30B48B6
:102CF000006816E024000020580B00202800002067
:102D00006C0B0020008001402C0000203C000020C3
:102D1000480000203000002038000020340000204F
:102D20001BE0012804D1FFF790FDF749087002E08D
:102D30002A20F54908704FF4807003F004F8002150
:102D40004CF23A3002F07DFD0120F049086000208D
:102D5000EF490860EC48007870BD022002F0A0FF47
:102D600070B1022002F0EFFF00214CF23A3002F085
:102D700068FD0020E64908600220E3490870EBE79F
:102D8000082002F08DFF70B1082002F0DCFF002166
:102D90004CF23A3002F055FD0020DD490860042075
:102DA000D9490870D8E7202002F07AFF70B12020BE
:102DB00002F0C9FF00214CF23A3002F042FD00203F
:102DC000D34908600620D0490870C5E7102002F0FA
:102DD00067FF70B1102002F0B6FF00214CF23A30CC
:102DE00002F02FFD0020CA4908600520C64908707E
:102DF000B2E74FF4007002F053FF78B14FF4007067
:102E000002F0A1FF00214CF23A3002F01AFD00203E
:102E1000BF4908600720BC4908709DE72A209BE74E
:102E200038B5044631208DF8000000208DF80100EF
:102E30008DF8020001208DF80300684605F077F850
:102E400000230122B3A1B54805F0D8FC10B1B4A00D
:102E500007F0B9FC002038BD02460020704701464B
:102E6000002070472DE9F05F83460C4615469846D2
:102E7000C1464FF0FF31A94805F066FD4FF0030A47
:102E800042E005F0030010B9AD4885421CD9002688
:102E900016E0AC4949683144490201EB44204FF443
:102EA0000072A949FEF74DFD07462A2F00D009E020
:102EB00005EB46204FF40072A34907F018F9761C81
:102EC0004E45E6D300BF1AE0B9F1010F0BD19D4981
:102ED0004968490201EB44204FF400722946FEF78D
:102EE00030FD07460BE097494968490201EB442051
:102EF0004B464FF400722946FEF753FE07462A2F31
:102F000000D104E0AAF1010ABAF1000FB9D100BF63
:102F1000824805F0A1FD2A2F02D14046BDE8F09F6E
:102F20002A46394689A007F04EFC0020F6E72DE935
:102F3000F04782460C4616469846C1464FF0FF3190
:102F4000764805F001FD06F0030010B97C48864282
:102F50001CD9002716E006EB47214FF400727A488F
:102F600007F0C5F8774949683944490201EB442024
:102F70004FF400727449FFF7B8F805462A2D00D0C7
:102F800002E07F1C4F45E6D300BF1AE0B9F1010F04
:102F90000BD16C494968490201EB44204FF400729F
:102FA0003146FFF7A2F805460BE066494968490239
:102FB00001EB44204B464FF400723146FFF73AFADA
:102FC0000546564805F048FD2A2D02D14046BDE889
:102FD000F0873246294665A007F0F5FB0020F6E7AA
:102FE000F8B505460E46144675B90020009040F627
:102FF0004243674A67A16BA007F0E5FB00BF9DF85D
:1030000000000028FBD000BF102E1CD1214611B9B2
:103010004FF0FF30F8BD4FF4007048606948806C95
:10302000886069480068022805D166480069401C2C
:103030008002086006E06348406C624A926CB0FB14
:10304000F2F0086000BF0020E4E770B5FEF7C9F8B1
:103050002A2852D15B48FEF7F7F805462A2D00D002
:103060004CE05849B1F84C100804FEF71EFC054628
:103070002A2D00D042E00020FEF7C3FB0020FEF71F
:1030800008FC4FF4007007F097FD04461CB94FA0F0
:1030900007F099FB70BD4FF4007221460020FEF747
:1030A00050FC05462A2D0AD10022214625480BF066
:1030B00036FF40B1002023494860886003E00020CB
:1030C000204948608860204607F04CFF01204A49AB
:1030D00008764A4888624A48C8624A4808634A48AB
:1030E00048634A4888634A48C863364808640F22E0
:1030F00048A1414805F068F8CCE700BF46A007F0BA
:1031000062FB00BFC6E70000400000204400002032
:103110004800002073646C6F636B0000280C002073
:10312000696E6974207364206C6F636B2073656DC6
:103130006170686F7265206661696C65640A000081
:1031400000000820180C00204C0C002072656164FF
:10315000206661696C65643A2025642C206275667E
:10316000666572203078253038780A007772697485
:1031700065206661696C65643A2025642C2062755F
:1031800066666572203078253038780A00000000C5
:10319000C8D8010864657620213D2052545F4E5501
:1031A0004C4C0000282573292061737365727420CC
:1031B0006661696C65642061742025733A2564201A
:1031C0000A000000C80B002024000020616C6C6F16
:1031D0006361746520706172746974696F6E2073C5
:1031E0006563746F722062756666657220666169D8
:1031F0006C65640A00000000840B0020212E00088A
:10320000592E00085F2E0008652E00082F2F000899
:10321000E12F000873643000736463617264206995
:103220006E6974206661696C65640A0010B506F009
:10323000E5FEFFF7CAFC06F0F0FE10BD70B586B0E3
:1032400006460C46756C01A801F057FF6078082807
:1032500003DC0020ADF808000AE06078102804DCE8
:103260004FF40060ADF8080002E0082006B070BD21
:10327000904A6168914200D911468F4B1868B1EBB2
:10328000500F07D38B4BB3EB500F03D30023ADF894
:1032900010302CE0B1EB900F03D30823ADF81030C1
:1032A00025E0B1EBD00F03D31023ADF810301EE0B2
:1032B000B1EB101F03D31823ADF8103017E0B1EBBA
:1032C000501F03D32023ADF8103010E0B1EB901F56
:1032D00003D32823ADF8103009E0B1EBD01F03D39E
:1032E0003023ADF8103002E03823ADF810302078EC
:1032F00000F0020018B10220ADF80A0002E0002040
:10330000ADF80A00207800F0010018B10120ADF8F6
:103310000C0002E00020ADF80C00207800F0040062
:1033200018B10020ADF8120002E08020ADF81200C4
:103330000020ADF804004FF48270ADF806004FF4A1
:103340000070ADF80E00686F01F026FD01A9686FEE
:1033500001F056FD0121686F01F0E5FE0021686F64
:1033600002F086F8002081E72DE9FC5F05460C4657
:10337000686C019005F148090198406F00902E6C2F
:10338000D4F808A0207C00F0010018B1B1883068A2
:1033900002F072FF99F8010008282BDC2768D4F8A6
:1033A000048021E04FF0FF0B0FB117F801BB00BF05
:1033B0000221009802F0EDF80028F9D05946009853
:1033C00001F096FF00BF0121009802F0E2F800280A
:1033D000F9D0009801F0A1FF00F0FF0BB8F1000F49
:1033E00001D008F801BB00BFBAF10000AAF1010A40
:1033F000D8D12EE099F8010010282ADC2768D4F8EB
:10340000048020E04FF0FF0B0FB137F802BB00BF84
:103410000221009802F0BDF80028F9D05946009822
:1034200001F066FF00BF0121009802F0B2F8002809
:10343000F9D0009801F071FF8346B8F1000F01D078
:1034400028F802BB00BFBAF10000AAF1010AD9D1E5
:1034500000BF207CC0F3400018B1B188306802F092
:10346000E0FEA068BDE8FC9F70B505460C46164618
:103470001248854209D160670121052001F003F857
:103480000121080300F0FFFF0EE00D48854209D13D
:1034900060670121092000F0F6FF0121880301F097
:1034A0001BF801E0062070BD064A3146204611F0A7
:1034B000E5FAF8E780A8120154000020003001402E
:1034C000003800404C00002010B504464FF0FF319A
:1034D00004F1540005F01CFC10BD10B5044604F1C5
:1034E000540005F0C0FC10BD3EB5FD48046D05203C
:1034F0000290012001AB024602A90090204611F083
:10350000BEFB9DF804003EBD10B500BFFFF7ECFF09
:1035100000F001000028F9D110BD7CB504460E462C
:10352000154604208DF80400ED490122086D01A91B
:1035300000F0BEFA03208DF80400200C8DF8050081
:10354000200A8DF80600E0B28DF80700E4490095E6
:1035500033460422086D01A911F091FB28467CBD79
:103560002DE9FC4104460D461646E0B268B1002044
:1035700000907823DB4ADCA1E0A007F024F900BF2B
:103580009DF800000028FBD000BF06208DF8040045
:10359000D3490122086D01A900F08AFA20208DF894
:1035A0000400200C8DF80500200A8DF80600E0B21A
:1035B0008DF80700CA490422086D01A900F078FAC5
:1035C000FFF7A2FF002725E006208DF80400C4497C
:1035D0000122086D01A900F06BFA02208DF80400A9
:1035E000200C8DF80500200A8DF80600E0B28DF859
:1035F00007004FF48070BA4900902B460422086DF2
:1036000001A911F0B2FA05F5807504F58074FFF791
:103610007BFF7F1CB7EB162FD6D304208DF8040058
:10362000AF490122086D01A900F042FA3046BDE819
:10363000FC8101460020704738B504460D462046FF
:10364000FFF742FF06208DF80000A5490122086D12
:10365000694600F02DFA01208DF8000000208DF859
:1036600001008DF802009E490322086D694600F0B2
:103670001FFAFFF749FF2046FFF72FFF002038BD54
:10368000014600207047F8B505460E4614466DB950
:1036900000200090C023A14AA1A198A007F093F8B0
:1036A00000BF9DF800000028FBD000BF102E0ED1F7
:1036B000214611B94FF0FF30F8BD8948806C486051
:1036C0008748406C08608648C06C886000BF002056
:1036D000F2E72DE9F04107460D4616461C463846EE
:1036E000FFF7F2FE7E49896C01FB04F27C49896C8C
:1036F00001FB05F03146FFF710FF3846FFF7EDFEFE
:103700002046BDE8F0812DE9F04107460D461646FA
:103710001C463846FFF7D8FE7149896C01FB04F25C
:103720006F49896C01FB05F03146FFF719FF3846F8
:10373000FFF7D3FE2046BDE8F081FEB506460F46F2
:10374000002239466648543005F0D9F928B178A0EE
:1037500007F039F86FF00500FEBD384604F00EFDA5
:10376000054635B9394679A007F02DF86FF0050008
:10377000F2E75B48056508208DF8050004208DF808
:103780000400794802905649086D01A911F0B4F976
:103790005348FFF799FE0420029051490122086D19
:1037A00002A900F085F99F20029003204C49009067
:1037B00001AB0122086D02A911F061FA4848FFF738
:1037C0008CFE9DF80400EF280ED068A006F0FBFFE9
:1037D0009DF806309DF805209DF804106AA006F0BB
:1037E000F2FF6FF00500B7E74FF480513C48816469
:1037F000C1649DF805409DF8060040EA042444F2A7
:103800001800844207D16AA006F0DDFF4FF4805013
:10381000334948644CE044F21700844207D16AA05F
:1038200006F0D1FF4FF400602D49486440E044F2B7
:103830001700844207D16DA006F0C5FF4FF4006069
:103840002749486434E044F21600844207D16DA051
:1038500006F0B9FF4FF480602149486428E046F241
:103860001600844207D16DA006F0ADFF4FF48060D2
:103870001B4948641CE044F21500844206D16DA047
:1038800006F0A1FF60111649486411E046F21500E8
:10389000844207D173A006F096FF4FF400701049E0
:1038A000486405E075A006F08EFF6FF0050053E751
:1038B00001200B490876784888627848C8627848C1
:1038C000086378484863784888637848C86300206C
:1038D00008640B223146024804F076FC00203BE7E6
:1038E0004C0E0020DAD80108287061676526307810
:1038F000464629203D3D2030000000002825732940
:1039000020617373657274206661696C65642061FF
:10391000742025733A2564200A000000ECD80108C1
:1039200064657620213D2052545F4E554C4C00007A
:10393000696E6974207364206C6F636B206D75749D
:103940006578206661696C65640A0000737069209F
:10395000646576696365202573206E6F7420666FD9
:10396000756E64210D0A000080F0FA024D616E75DB
:103970006661637475726572732049442065727262
:103980006F72210D0A0000004A45444543205265EC
:1039900061642D49442044617461203A202530320D
:1039A00058202530325820253032580D0A000000AA
:1039B000573235513132384256206465746563742C
:1039C000696F6E0D0A000000573235513634425689
:1039D000206F722057323551363443562064657457
:1039E000656374696F6E0D0A00000000573235512F
:1039F0003634445720646574656374696F6E0D0ACC
:103A0000000000005732355133324256206465744D
:103A1000656374696F6E0D0A0000000057323551FE
:103A20003332445720646574656374696F6E0D0AA0
:103A3000000000005732355131364256206F722057
:103A4000573235513136434C206F72205732355141
:103A50003136435620646574656374696F6E0D0A70
:103A600000000000573235513136445720646574E8
:103A7000656374696F6E0D0A000000004D656D6F1F
:103A80007279204361706163697479206572726F25
:103A900072210D0A00000000333600083936000894
:103AA00081360008D336000807370008873600083B
:103AB00070B505460E461446234600223146284678
:103AC00011F067F970BD000002460020704710B584
:103AD0000446002010BDF8B506460F4614466EB9E0
:103AE000002000902723474A47A14BA006F06BFE19
:103AF00000BF9DF800000028FBD000BF102F02D0AF
:103B0000112F1BD104E0254601F063F8286015E071
:103B1000254601214FF0C05000F0DEFC012000F0EE
:103B2000E2FD01F09AF8286801F05CF801F095F8E0
:103B30004AF2A551042000F00BFF00BF00BF002097
:103B4000F8BD10B54FF4001401214FF0C05000F043
:103B5000C3FC012000F0C7FD00F09CFE012000F036
:103B60007BFB00BF412000F0E3F910B9601E041E8A
:103B7000F8D114B94FF0FF3010BD4FF4807000F051
:103B8000C5FB012000F0DCFB01F070F801F065F8E6
:103B900047F6FF7001F033F801F05FF80020EBE723
:103BA00010B5052024490876042000F038FF4AF2B9
:103BB000A55188420DD021A006F005FE25A006F0F3
:103BC00002FEFFF7BEFF30B12EA006F0FCFD002084
:103BD00010BD01F04BF80020174988622F48C862D9
:103BE000002008632E484863002088632D48C8637E
:103BF0000020086403222CA10F4804F0E5FA0020FD
:103C0000E6E7000001D9010864657620213D2052D5
:103C1000545F4E554C4C0000282573292061737366
:103C2000657274206661696C656420617420257317
:103C30003A2564200A000000C80E00207274632038
:103C40006973206E6F7420636F6E66696775726545
:103C5000640A0000706C6561736520636F6E66694D
:103C6000677572652077697468207365745F646135
:103C7000746520616E64207365745F74696D650A94
:103C80000000000072746320636F6E66696775726E
:103C900065206661696C2E2E2E0D0A00C93A000857
:103CA000CF3A0008D73A0008727463000CB50020C0
:103CB000019000906C48006840F480306A490860C8
:103CC00000BF6948006800F4003000900198401C73
:103CD0000190009818B90198B0F5A06FF1D1624831
:103CE000006800F4003010B10120009001E00020D5
:103CF00000900098012843D15C48006840F0100013
:103D00005A4908600846006820F003000860084629
:103D1000006840F00200086053484068524948601B
:103D20000846406848600846406840F48060486043
:103D30000846406820F47C1048600846406840F41B
:103D4000E81048600846006840F08070086000BFD6
:103D50004548006800F000700028F9D042484068EB
:103D600020F00300404948600846406840F00200E7
:103D7000486000BF3C48406800F00C000828F9D1BA
:103D80000CBD10B5FFF792FF10BD10B536480068A6
:103D900040F0010034490860084640683449084052
:103DA0003149486008460068324908402E49086099
:103DB0000846006820F4802008600846406820F427
:103DC000FE0048604FF41F008860FFF7DAFF4FF0F5
:103DD00000602949086010BD10B5002100200022B4
:103DE000214B5B6803F00C0121B1042906D008299E
:103DF00028D107E0214B224C236027E01F4B204CA9
:103E0000236023E0184B5B6803F47010164B5B686B
:103E100003F48032022303EB904022B9194B434351
:103E2000174C23600DE0104B5B6803F4003323B1A3
:103E3000144B4343124C236003E0104B4343104C9C
:103E4000236003E00D4B0E4C236000BF00BF064B08
:103E50005B68C3F303130C4CE15C094B1B68CB405C
:103E6000074C236010BD00000010024000200240FB
:103E70000000FFF8FFFFF6FE08ED00E000127A00F8
:103E80005400002000093D0058000020FE48006852
:103E900040F00100FC49086008464068FB490840C2
:103EA000F949486008460068F9490840F649086041
:103EB0000846006820F4802008600846406820F426
:103EC000FE0048604FF41F008860704710B504463C
:103ED0002CB1B4F5803F02D0B4F5802F00D104E0BE
:103EE00040F21111EBA0FCF763FAE748006820F4F8
:103EF0008030E54908600846006820F480200860AA
:103F0000B4F5803F03D0B4F5802F0ED106E0DE4833
:103F1000006840F48030DC49086007E0DA48006857
:103F200040F4A020D849086000E000BF00BF10BDE9
:103F30002DE9F0410446002500260027212C13D04E
:103F4000312C11D0392C0FD0412C0DD0612C0BD03D
:103F50007A2C09D07B2C07D07C2C05D07D2C03D06B
:103F60007E2C01D07F2C00D104E040F23451C9A056
:103F7000FCF71EFA6511012D02D1C348066806E060
:103F8000022D02D1C048066A01E0BF48466A04F02B
:103F90001F050120A840304008B1012700E000279C
:103FA0003846BDE8F08138B5002000900024002597
:103FB00000BF3120FFF7BCFF05460098401C009071
:103FC0000098B0F5A06F01D0002DF2D03120FFF79E
:103FD000AFFF08B1012400E00024204638BD70B5D1
:103FE000044600251F2C00DC04E04FF4A971A9A0B1
:103FF000FCF7DEF9A448056825F0F80545EAC40594
:10400000056070BD10B504460CB1012C00D104E070
:1040100040F265119FA0FCF7CBF9AD48046010BDDC
:1040200070B505460C4600262DB1B5F5803F02D08F
:10403000B5F5403F00D104E040F27F1195A0FCF7B8
:10404000B7F94CB3B4F5802F26D0B4F5002F23D0A8
:10405000B4F5402F20D0B4F5801F1DD0B4F5A01FBB
:104060001AD0B4F5C01F17D0B4F5E01F14D0B4F5C2
:10407000001F11D0B4F5101F0ED0B4F5201F0BD0C7
:10408000B4F5301F08D0B4F5401F05D0B4F5501F6B
:1040900002D0B4F5601F00D104E04FF4C0717DA0E0
:1040A000FCF786F97848466826F47C1645EA040051
:1040B00006437548466070BD10B504460CB1012C2E
:1040C00000D104E04FF4CA7172A0FCF771F9804886
:1040D000046610BD70B5044600251CB1012C01D04A
:1040E000022C00D104E04FF40E716AA0FCF760F9D5
:1040F0006548456825F003052543456070BD624865
:10410000406800F00C00704770B5044600257CB193
:10411000802C0DD0902C0BD0A02C09D0B02C07D027
:10412000C02C05D0D02C03D0E02C01D0F02C00D135
:1041300004E04FF4197157A0FCF73AF9524845686A
:1041400025F0F0052543456070BD70B50446002597
:104150005CB1B4F5806F08D0B4F5A06F05D0B4F5AC
:10416000C06F02D0B4F5E06F00D104E040F27E21D0
:1041700048A0FCF71DF94448456825F4E06525434F
:10418000456070BD70B5044600255CB1B4F5806F24
:1041900008D0B4F5A06F05D0B4F5C06F02D0B4F567
:1041A000E06F00D104E04FF426713AA0FCF700F96B
:1041B0003548456825F4605545EAC405456070BD3D
:1041C00070B504460D4604F0E00008B904B104E0FF
:1041D00040F2BF212FA0FCF7EBF80DB1012D00D16B
:1041E00004E04FF430712BA0FCF7E2F82DB1264823
:1041F000407A20432449487204E02348407AA0438F
:104200002149487270BD10B504460CB1012C00D193
:1042100004E040F2DB211FA0FCF7CAF82C48D8309C
:10422000046010BD70B50446002544B1B4F5804F5C
:1042300005D0B4F5004F02D0B4F5404F00D104E0F2
:1042400040F2023113A0FCF7B3F80F48456825F49B
:1042500040452543456070BD10B504461CB1012C96
:1042600001D0042C00D104E04FF4507109A0FCF7F8
:104270009FF80020044920310870034981F820008C
:10428000012C29D0042C25E0001002400000FFF88A
:10429000FFFFF6FE4C69627261726965735C53548C
:1042A0004D3332463130785F5374645065726970B3
:1042B000685F4472697665725C7372635C73746D77
:1042C0003332663130785F7263632E630000000022
:1042D0000000424208D103E00120F449087004E0E4
:1042E0000520F249087000E000BF00BF10BD10B506
:1042F00004460CB1012C00D105E040F26131AFF26F
:104300006C00FCF755F8EA48046010BD10B504468F
:10431000B4F5807F05D0B4F5007F02D0B4F5407FBE
:1043200000D105E040F27231AFF29800FCF740F89E
:10433000DE482038006A2043DC492039086210BD7D
:1043400010B504460CB1012C00D105E04FF46071AA
:10435000AFF2C000FCF72CF8D5484438046010BD1B
:1043600030B50021002200240023D04D203D6D688F
:1043700005F00C0121B1042905D0082926D105E05A
:10438000CC4D056025E0CB4D056022E0C74D203DBA
:104390006D6805F47012C54D203D6D6805F48034DC
:1043A000022505EB92421CB9C34D554305600CE054
:1043B000BE4D203D6D6805F400351DB1BE4D554321
:1043C000056002E0BB4D5543056002E0B94D056054
:1043D00000BF00BFB54D203D6D6805F0F001090933
:1043E000B64D6B5C0568DD404560B04D203D6D68A5
:1043F00005F4E061090AB14D6B5C4568DD408560FC
:10440000AA4D203D6D6805F46051C90AAB4D6B5C47
:104410004568DD40C560A54D203D6D6805F440410F
:10442000890BA74D6B5CC568B5FBF3F5056130BD25
:1044300070B504460D4640F2575024EA000008B912
:1044400004B105E040F22B41AFF2B810FBF7B0FF2A
:104450000DB1012D00D105E040F22C41AFF2CC109E
:10446000FBF7A6FF3DB191482038406920438F49B2
:104470002039486106E08D4820384069A0438B49C7
:104480002039486170BD70B504460D468D48204006
:1044900008B904B105E040F24A41AFF20820FBF749
:1044A00087FF0DB1012D00D105E040F24B41AFF285
:1044B0001C20FBF77DFF3DB17C48203880692043FC
:1044C0007A492039886106E0784820388069A0431D
:1044D00076492039886170BD70B504460D467A482A
:1044E000204008B904B105E040F26941AFF25C2018
:1044F000FBF75EFF0DB1012D00D105E040F26A41EE
:10450000AFF27020FBF754FF3DB168482038C06916
:10451000204366492039C86106E064482038C069F4
:10452000A04362492039C86170BD70B504460D468C
:104530006448204008B904B105E040F2A441AFF25C
:10454000AC20FBF735FF0DB1012D00D105E040F2A5
:10455000A541AFF2C020FBF72BFF3DB153482038F7
:10456000C068204351492039C86006E04F482038D0
:10457000C068A0434D492039C86070BD70B504467D
:104580000D465148204008B904B105E040F2C3414E
:10459000AFF20030FBF70CFF0DB1012D00D105E0AB
:1045A00040F2C441AFF21430FBF702FF3DB13F4887
:1045B0002038006920433D492039086106E03B4826
:1045C00020380069A04339492039086170BD10B511
:1045D00004460CB1012C00D105E04FF49B61AFF211
:1045E0004C30FBF7E5FE32484038046010BD10B592
:1045F00004460CB1012C00D105E040F2E541AFF2D8
:104600006C30FBF7D5FE3148C46410BD10B50446CC
:104610003CB1052C05D0042C03D0062C01D0072C6E
:1046200000D105E040F20551AFF29830FBF7C0FE33
:104630001E482038C47110BD1C482038406A40F024
:1046400080701A4920394862704770B504460025C9
:10465000012C09D0022C07D0042C05D0082C03D043
:10466000102C01D0802C00D105E040F27E51AFF239
:10467000DC30FBF79DFE0D4820388068204008B1F3
:10468000012500E00025284670BD10B5044604F061
:10469000600008B904B105E040F2AB51AFF20C4044
:1046A000FBF786FE01482038847210BD20100240BE
:1046B0008004424200127A0000093D006800002098
:1046C000780000200200C0FF003601810000424255
:1046D00010B501210807FFF751FF00214FF080506E
:1046E000FFF74CFF10BD10B504460CB1012C00D1F2
:1046F00003E07F2155A0FBF75BFE6348046210BD19
:1047000010B504460CB1012C00D103E08C214FA060
:10471000FBF74EFE5C48046110BD70B504460025F1
:104720006CB1202C0BD0402C09D0602C07D0802CF1
:1047300005D0A02C03D0C02C01D0E02C00D103E088
:10474000A22142A0FBF734FE5048056825F0E005A1
:104750002543056070BD10B504460CB1012C00D195
:1047600003E0B52139A0FBF723FE4748A0300460E1
:1047700010BD70B504460D4600260CB1012C00D1C9
:1047800003E0C92131A0FBF713FE012D01D0022D5A
:1047900000D103E0CA212DA0FBF70AFE3B480668C2
:1047A00026F00306264306603948006840F00400FE
:1047B00037490860012D01D130BF00E020BF3448E7
:1047C000006820F004003249086070BD2F4800687E
:1047D00040F004002D4908600846006840F00200DF
:1047E00008602B48006840F004002949086000BFB9
:1047F00000BF30BF704770B504460025012C03D0C0
:10480000022C01D0042C00D104E040F209110FA0C9
:10481000FBF7CEFD1D484068204008B1012500E0AF
:104820000025284670BD10B50446012C01D0022C8D
:1048300000D104E04FF4917104A0FBF7B9FD1348D7
:10484000006840EA84001149086010BD4C6962723A
:1048500061726965735C53544D3332463130785F11
:104860005374645065726970685F447269766572EA
:104870005C7372635C73746D3332663130785F7071
:1048800077722E630000000000000E4200700040AE
:1048900010ED00E010B50120FFF799FE0020FFF7B2
:1048A00096FE10BD10B504460CB1012C00D103E0FA
:1048B00089219CA0FBF77CFDA948046010BD10B5C0
:1048C00004460CB1012C00D103E0962195A0FBF722
:1048D0006FFDA348001F046010BD10B504460CB165
:1048E000012C00D103E0A3218EA0FBF761FD9C48C1
:1048F0008430046010BD70B5044600253CB1802CA6
:1049000005D0B4F5807F02D0B4F5407F00D103E03C
:10491000B82184A0FBF74CFD924805884FF67F40F4
:10492000054025438F48058070BD70B504460025BD
:104930007F2C00DC03E0CD217AA0FBF739FD89480C
:1049400005884FF68070054025438648058070BD78
:1049500038B504460D4600200090042C51D0082C98
:104960004FD00C2C4DD0102C4BD0142C49D0182CDF
:1049700047D01C2C45D0202C43D0242C41D0282CAF
:104980003FD0402C3DD0442C3BD0482C39D04C2C2F
:1049900037D0502C35D0542C33D0582C31D05C2CFF
:1049A0002FD0602C2DD0642C2BD0682C29D06C2CCF
:1049B00027D0702C25D0742C23D0782C21D07C2C9F
:1049C0001FD0802C1DD0842C1BD0882C19D08C2C6F
:1049D00017D0902C15D0942C13D0982C11D09C2C3F
:1049E0000FD0A02C0DD0A42C0BD0A82C09D0AC2C0F
:1049F00007D0B02C05D0B42C03D0B82C01D0BC2CDF
:104A000000D103E0E32147A0FBF7D2FC55482C3846
:104A100000900098204400900098056038BD38B59B
:104A2000044600200090042C51D0082C4FD00C2CB0
:104A30004DD0102C4BD0142C49D0182C47D01C2C06
:104A400045D0202C43D0242C41D0282C3FD0402CC2
:104A50003DD0442C3BD0482C39D04C2C37D0502C56
:104A600035D0542C33D0582C31D05C2C2FD0602C26
:104A70002DD0642C2BD0682C29D06C2C27D0702CF6
:104A800025D0742C23D0782C21D07C2C1FD0802CC6
:104A90001DD0842C1BD0882C19D08C2C17D0902C96
:104AA00015D0942C13D0982C11D09C2C0FD0A02C66
:104AB0000DD0A42C0BD0A82C09D0AC2C07D0B02C36
:104AC00005D0B42C03D0B82C01D0BC2C00D103E00D
:104AD000F62114A0FBF76CFC22482C3800900098BB
:104AE000204400900098008838BD1D489C30006824
:104AF000C0B270471B480830008840F001001949D7
:104B00000831088070471648A0300068C0B270476E
:104B100014480830008840F002001249083108802B
:104B2000704700004C69627261726965735C53542E
:104B30004D3332463130785F53746450657269701A
:104B4000685F4472697665725C7372635C73746DDE
:104B50003332663130785F626B702E630000000084
:104B600004860D422C6C004070B504460D464FF68D
:104B7000F870204008B904B103E05D2176A0FBF78E
:104B800017FC0DB1012D00D103E05E2172A0FBF7EF
:104B90000FFC2DB17F48008820437E49088004E047
:104BA0007C480088A0437B49088070BD7948001D7F
:104BB000008840F010007749091D0880704775484B
:104BC000001D00884FF6EF7108407249091D0880EA
:104BD000704700216F481C300188001F008841EA9F
:104BE0000040704700B50246FFF7E0FF100C69492E
:104BF00018310880091D0A80FFF7E1FF00BD10B5DC
:104C00000446B4F5801F00D203E0A32152A0FBF7B5
:104C1000CFFBFFF7CBFFC4F303405E4908310880A8
:104C2000091D0C80FFF7CBFF10BD00B50246FFF752
:104C3000BDFF100C574920310880091D0A80FFF77D
:104C4000BEFF00BD00205349103109880907080B39
:104C50005049143109880843704700BF4D48001D72
:104C6000008800F020000028F8D070474948001D57
:104C700000884FF6F77108404649091D088000BFBB
:104C80004448001D008800F008000028F8D0704754
:104C900070B504460025202C07D0082C05D0042C24
:104CA00003D0022C01D0012C00D103E0F9212AA06D
:104CB000FBF77EFB3748001D0088204008B1012526
:104CC00000E00025284670BD10B504464FF6F07090
:104CD000204008B904B104E04FF48A711EA0FBF72C
:104CE00067FB2C48001D0088A0432A49091D088045
:104CF00010BD70B504460025042C03D0022C01D051
:104D0000012C00D104E040F2271113A0FBF750FB67
:104D10002048001D00882040C5B21E480088204061
:104D200010B10DB1012500E00025284670BD10B579
:104D300004464FF6F870204008B904B104E040F290
:104D4000411105A0FBF734FB1248001D0088A04369
:104D50001049091D088010BD4C6962726172696555
:104D6000735C53544D3332463130785F5374645022
:104D700065726970685F4472697665725C737263AC
:104D80005C73746D3332663130785F7274632E6396
:104D9000000000000028004010B50446FA48844294
:104DA00005D0FA48844202D0F948844200D103E099
:104DB0007A21F8A0FBF7FCFAF348844208D10121DC
:104DC0008014FFF7B2FB0021A014FFF7AEFB16E042
:104DD000EE48844208D101210014FFF7CFFB0021E7
:104DE0002014FFF7CBFB0AE0E948844207D10121F8
:104DF000C013FFF7C3FB0021E013FFF7BFFB10BD9B
:104E000070B505460C460026DF48854205D0DF48D0
:104E1000854202D0DE48854200D103E0A321DDA017
:104E2000FBF7C6FA208858B12088B0F5806F07D00C
:104E30002088B0F5004F03D02088B0F5404F00D156
:104E400003E0A621D3A0FBF7B3FA6088B0F5827F18
:104E500001D0608800B903E0A721CEA0FBF7A8FA33
:104E6000A088B0F5006F01D0A08800B903E0A821A8
:104E7000C8A0FBF79DFAE08810B1E088022800D1B5
:104E800003E0A921C3A0FBF793FA208910B1208980
:104E9000012800D103E0AA21BEA0FBF789FA6089AE
:104EA000B0F5007F01D0608900B903E0AB21B9A063
:104EB000FBF77EFAA089A0B1A089082811D0A089AB
:104EC00010280ED0A08918280BD0A089202808D03F
:104ED000A089282805D0A089302802D0A0893828A8
:104EE00000D103E0AC21ABA0FBF762FAE08910B17E
:104EF000E089802800D103E0AD21A6A0FBF758FA95
:104F0000208A012800DB03E0AE21A2A0FBF750FAC3
:104F10002E8806F44156208861880843A1880843FA
:104F2000E18808432189084361890843A18908432E
:104F3000E189084306432E80A88B4FF2FF71084099
:104F4000A883208A288270BD2DE9F04F85B00546E0
:104F50000C464FF0000902274FF000084FF0010BFC
:104F60000026B2468948854202D08948854200D150
:104F700003E0E32187A0FBF71BFA208858B12088C3
:104F8000B0F5807F07D02088B0F5007F03D020885F
:104F9000B0F5407F00D103E0E4217EA0FBF708FAE2
:104FA000608858B16088102808D06088202805D013
:104FB0006088302802D06088B02800D103E0E52165
:104FC00074A0FBF7F5F9A08840B1A088012805D0AE
:104FD000A088032802D0A088052800D103E0E6219C
:104FE0006CA0FBF7E5F9E088B0F5007F01D0E08820
:104FF00000B903E0E72167A0FBF7DAF9A068B0F594
:10500000FA5F03D37249A068884202D9A0680228D7
:1050100000D103E0E8215FA0FBF7CAF9A08910B135
:10502000A089082800D103E0E9215AA0FBF7C0F9C4
:10503000A88B4FF240010840A88302202884B5F8CD
:105040001C90A068022803D14FF00008022738E026
:10505000A08810B94FF0010B01E04FF0020B4B4854
:10506000854200D100E000BF6846FFF779F9DDF81E
:1050700000A0E088B0F5007F0AD14FEA1A2000EBCB
:1050800080004000A168B0FBF1F0401D86B20BE04B
:105090004FEA4B10BAFBF0F000EB80004000A16833
:1050A000B0FBF1F0401D86B20A20B6FBF0F606F028
:1050B0000108A6EB0800C0F34F074FF6FF7000EAA7
:1050C0000828022F01DBFF2F02DD02274FF0000826
:1050D000E08840EA080038432884A088A189084372
:1050E000618808432188084340F4006040EA0909C8
:1050F000A5F81C9005B0BDE8F08F0021018041802B
:105100008180C180018141818181C181072101822A
:1051100070470021018041808180C180022181602F
:1051200000218181704770B504460D4616488442BF
:1051300005D01648844202D01548844200D104E0CC
:105140004FF4D77113A0FBF733F90DB1012D00D146
:1051500004E040F2AF110FA0FBF72AF925B1208837
:1051600040F04000208004E020884FF6BF710840E6
:10517000208070BD70B504460D460448844202D0BC
:105180000348844226D12BE0003001400038004023
:10519000003C00404C69627261726965735C5354F3
:1051A0004D3332463130785F5374645065726970A4
:1051B000685F4472697665725C7372635C73746D68
:1051C0003332663130785F7370692E6300000000FF
:1051D00000EE02004FF4E371AFF24800FBF7E8F88D
:1051E0000DB1012D00D105E040F2C711AFF25C0016
:1051F000FBF7DEF825B1A08B40F48060A08304E0CB
:10520000A08B4FF6FF310840A08370BD2DE9F0411F
:1052100004460D4616464FF000080027F648844223
:1052200005D0F648844202D0F548844200D105E01A
:105230004FF4F371AFF2A400FBF7BAF80EB1012EF0
:1052400000D105E040F2E711AFF2B800FBF7B0F88B
:10525000712D03D0602D01D0502D00D105E04FF409
:10526000F471AFF2D000FBF7A3F84FEA2518012044
:1052700000FA08F087B21EB1A0883843A08002E08F
:10528000A088B843A080BDE8F08170B504460D4603
:105290001646D948844205D0D848844202D0D8481E
:1052A000844200D105E04FF40371AFF21810FBF710
:1052B0007FF80EB1012E00D105E040F20D21AFF2D2
:1052C0002C10FBF775F84FF6FC70284008B905B1B3
:1052D00005E040F20E21AFF24410FBF769F81EB171
:1052E000A0882843A08002E0A088A843A08070BDC9
:1052F00070B504460D46C048844205D0BF4884427C
:1053000002D0BF48844200D105E040F22621AFF22E
:105310007C10FBF74DF8A58170BD10B50446B6486A
:10532000844205D0B548844202D0B548844200D1B9
:1053300005E040F23621AFF2A410FBF739F8A0895E
:1053400010BD70B504460D46AB48844205D0AB484D
:10535000844202D0AA48844200D105E04FF4127181
:10536000AFF2D010FBF724F8B5F5807F03D04FF6ED
:10537000FF60854200D105E040F24921AFF2EC1018
:10538000FBF716F84FF6FF60854204D0208840F402
:105390008070208004E020884FF6FF610840208064
:1053A00070BD70B504460D469348844205D09348BD
:1053B000844202D09248844200D105E04FF4187133
:1053C000AFF23020FAF7F4FF0DB1012D00D105E066
:1053D00040F26121AFF24420FAF7EAFF25B1A0883C
:1053E00040F00400A08004E0A0884FF6FB71084064
:1053F000A08070BD70B504460D467F48844205D03C
:105400007E48844202D07E48844200D105E040F2CA
:105410007A21AFF28020FAF7CBFFB5F5006F00D00C
:1054200005B905E040F27B21AFF29820FAF7C0FF02
:1054300020884FF2FF710840208020882843208078
:1054400070BD10B504466C48844205D06B48844258
:1054500002D06B48844200D105E040F28A21AFF2CD
:10546000CC20FAF7A5FF208840F48050208010BDA2
:1054700070B504460D466048844205D05F488442BA
:1054800002D05F48844200D105E040F29A21AFF299
:10549000FC20FAF78DFF0DB1012D00D105E040F29F
:1054A0009B21AFF21030FAF783FF25B1208840F43A
:1054B0000050208004E020884DF6FF7108402080D5
:1054C00070BD70B504460D4600264B48844205D099
:1054D0004A48844202D04A48844200D105E040F262
:1054E000B521AFF25030FAF763FF0DB1012D00D1B5
:1054F00005E040F2B621AFF26430FAF759FF012D12
:1055000001D0268B00E0A68A304670BD10B5044657
:105510003948844205D03948844202D03848844210
:1055200000D105E040F2CD21AFF29830FAF740FF0C
:10553000208A10BD70B504460D462F48844205D020
:105540002E48844202D02E48844200D105E040F229
:10555000DF21AFF2C030FAF72BFF4BF6FF70854228
:1055600002D0B5F5804F00D105E04FF43871AFF2AD
:10557000DC30FAF71DFFB5F5804F04D1208840F4E8
:105580008040208004E020884BF6FF710840208096
:1055900070BD70B505460C4600261748854205D0FB
:1055A0001648854202D01648854200D105E040F2F7
:1055B0000231AFF22040FAF7FBFE802C0DD0402CD8
:1055C0000BD0202C09D0102C07D0082C05D0042C8F
:1055D00003D0022C01D0012C00D105E040F20331B0
:1055E000AFF25040FAF7E4FE2889204008B10126C6
:1055F00000E00026304670BD003001400038004019
:10560000003C004070B504460D464348844205D036
:105610004248844202D04248844200D105E040F230
:105620002731AFF29040FAF7C3FE102D00D105E00C
:105630004FF44A71AFF2A440FAF7BAFEE843208172
:1056400070BD2DE9F04705460C460027B8460026F8
:10565000B1463148854205D03048854202D03048B5
:10566000854200D105E040F24331AFF2D840FAF76D
:105670009FFE602C09D0712C07D0532C05D0542CE0
:1056800003D0552C01D0562C00D105E04FF45171B8
:10569000AFF20050FAF78CFE04F00F0101208840B1
:1056A0001FFA80F826110120B04086B2A88800EACF
:1056B0000609288900EA080020B1B9F1000F01D0DD
:1056C000012700E000273846BDE8F08770B50446A2
:1056D0000D4600261048844205D01048844202D06E
:1056E0000F48844200D105E040F27731AFF25C50C0
:1056F000FAF75EFE542D00D105E04FF45E71AFF273
:105700006C50FAF755FE05F00F010120884086B273
:10571000F043208170BD000000300140003800409F
:10572000003C00400020F949086048608860C8607B
:1057300048628862C862F64888630020C863704780
:1057400070B504460025206818B12068B0F5005FE8
:1057500000D103E0BA21EFA0FAF72AFE606818B181
:105760006068B0F5806F00D103E0BB21E9A0FAF7D3
:105770001FFEA06818B1A068B0F5007F00D103E05B
:10578000BC21E4A0FAF714FEE06838B1E068B0F597
:10579000006F03D0E068B0F5805F00D103E0BD2169
:1057A000DCA0FAF705FE206918B12069B0F5804F3A
:1057B00000D103E0BE21D7A0FAF7FAFDD34845682F
:1057C00047F6FF608543207DA16808436168084370
:1057D000E168084321680843216908430543CB4831
:1057E000456070BD00210175016041608160C1604C
:1057F0000161704710B504460CB1012C00D103E0E3
:10580000EE21C4A0FAF7D4FDD148046010BD10B554
:1058100004460CB1032C00D103E0FE21BDA0FAF731
:10582000C7FDBA48006820F00300B8490860084680
:1058300000682043086010BDB448006800F0030011
:10584000704770B504460D4604F07F4008B904B1B6
:1058500004E04FF49B71AFA0FAF7AAFD0DB1012D42
:1058600000D104E040F23711AAA0FAF7A1FD2DB152
:10587000A648C06B2043A549C86304E0A348C06B99
:10588000A043A249C86370BD10B504460CB1012CF9
:1058900000D104E04FF4A7719EA0FAF789FDAD484E
:1058A000046010BD70B5044600256068402800D231
:1058B00004E040F25F1197A0FAF77AFDA06828B1E2
:1058C000A068402802D0A068C02800D104E04FF4AE
:1058D000B07190A0FAF76CFDE06838B1E068B0F5FF
:1058E000807F03D0E068B0F5007F00D104E040F293
:1058F000611188A0FAF75CFD2069B0F5806F01D0D6
:10590000206900B904E04FF4B17182A0FAF750FDAC
:105910007E49206888600846C5686FF30A05D4E9A7
:1059200001010843E16808432169084305437748BA
:10593000C56070BD0021016041608160C16001618E
:10594000704772480069C0B2704738B504460020FD
:1059500000902CB1042C03D0082C01D00C2C00D1C9
:1059600004E040F2A1116BA0FAF722FD6748143061
:10597000204400900098006838BD70B504460025AA
:105980006068B0F1007F00D204E04FF4DA7161A0EA
:10599000FAF70EFDA06848B3A068102826D0A068CA
:1059A000202823D0A068302820D0A06840281DD00F
:1059B000A06850281AD0A068602817D0A068702866
:1059C00014D0A068802811D0A06890280ED0A068BC
:1059D000A0280BD0A068B02808D0A068C02805D0A7
:1059E000A068D02802D0A068E02800D104E040F2EE
:1059F000B51148A0FAF7DCFCE06810B1E0680228B5
:105A000000D104E04FF4DB7142A0FAF7D1FC206929
:105A1000042801D0206900B904E040F2B7113DA08C
:105A2000FAF7C6FC6069012801D0606900B904E09A
:105A30004FF4DC7137A0FAF7BBFC344920684862A8
:105A4000606888620846C56A25F0F705D4E9020156
:105A50000843216908436169084305432B48C5622F
:105A600070BD4FF0FF310160002141608160C16075
:105A70000161416170472548006B704723488030C1
:105A80000068704721498031086070471F48806C6A
:105A9000704710B504460CB1012C00D104E04FF45E
:105AA00005711CA0FAF784FC2A481430046010BD6C
:105AB00010B504460CB1012C00D104E040F22221C3
:105AC00014A0FAF775FC23481830046010BD10B517
:105AD0000446012C00D004B904E040F232210DA0AC
